:020000040000FA
:100000000820002019020000210200002302000045
:100010002502000027020000290200000000000065
:100020000000000000000000000000002B020000A3
:100030002D020000000000002F020000310200002D
:1000400033020000330200003302000033020000DC
:1000500033020000330200003302000033020000CC
:1000600033020000330200003302000033020000BC
:1000700033020000330200003302000033020000AC
:10008000330200003302000033020000330200009C
:10009000330200003302000033020000330200008C
:1000A000330200003302000033020000330200007C
:1000B00033020000330200000000000000000000D6
:1000C000330200003302000033020000330200005C
:1000D0003302000033020000330200000000000081
:1000E0000000000000000000000000000000000010
:1000F0000000000000000000000000000000000000
:1001000000000000000000000000000000000000EF
:1001100000000000000000000000000000000000DF
:1001200000000000000000000000000000000000CF
:1001300000000000000000000000000000000000BF
:1001400000000000000000000000000000000000AF
:10015000000000000000000000000000000000009F
:10016000000000000000000000000000000000008F
:10017000000000000000000000000000000000007F
:10018000000000000000000000000000000000006F
:10019000000000000000000000000000000000005F
:1001A000000000000000000000000000000000004F
:1001B000000000000000000000000000000000003F
:1001C000000000000000000000000000000000002F
:1001D000000000000000000000000000000000001F
:1001E000000000000000000000000000000000000F
:1001F00000000000000000000000000000000000FF
:10020000DFF810D000F01AF800480047450600005B
:10021000AFF30080082000200648804706480047CA
:10022000FEE7FEE7FEE7FEE7FEE7FEE7FEE7FEE7A6
:10023000FEE7FEE76102000001020000064C074DE8
:1002400006E0E06840F0010394E8070098471034A6
:10025000AC42F6D3FFF7D8FFC0060000E00600006E
:10026000F0B5B74AB7494FF080541368D4F830015D
:100270000978D4F83421451CC1F3031106D0844613
:1002800001270025BCF1060F03D00AE003F0FF0CA4
:10029000F6E7B4F82463DFF8B0C2C6F30426CCF85E
:1002A0000060DEB2062E06D1032904D1DFF8A0C219
:1002B000A64ECCF87460461C04D08446BCF1060FF0
:1002C00003D00AE003F0FF0CF8E7D4F84462DFF84B
:1002D00084C2C6F34236CCF80060DEB2062E08D1E6
:1002E000032906D19C4ED6F800C02CF0807CC6F8BD
:1002F00000C0461C04D08446BCF1060F03D00BE0BE
:1003000003F0FF0CF8E74FF08046C6F80C51C6F832
:100310001051904E361F3560DEB2062E08D10329EB
:1003200006D1DFF830C203260CF1640CCCF8006073
:10033000DEB2062E11D103290FD1DFF820C2052627
:10034000CCF80060854E78363760844E08363560CC
:100350000CF1040C3F26CCF80060461C06D0844605
:100360004FEA0206BCF1060F04D081E003F0FF0C57
:100370000E46F7E7032E7BD0042E79D0784E3668F0
:10038000DFF8E0C1CCF80060754E361D36680CF120
:10039000040CCCF80060724E083636680CF1040C80
:1003A000CCF800606E4E0C3636680CF1040CCCF8BC
:1003B00000606B4E103636680CF1040CCCF800600F
:1003C000674E143636680CF1040CCCF80060644EAD
:1003D00018363668DFF88CC10CF1200CCCF80060C0
:1003E0005F4E1C3636680CF1040CCCF800605C4E95
:1003F000203636680CF1040CCCF80060584E2436D8
:1004000036680CF1040CCCF80060554E283636687E
:100410000CF1040CCCF80060514E2C3636680CF10F
:10042000040CCCF800604E4E30363668DFF834C12C
:100430000CF1400CCCF80060494E343636680CF1B3
:10044000040CCCF80060464E383636680CF1040CCB
:10045000CCF80060424E3C3636680CF1040CCCF807
:1004600000603F4E403636680CF1040CCCF800605A
:10047000461C05D04FEA000CBCF1060F03D008E083
:1004800003F0FF0CF8E7D4F85842374E04F04F045D
:100490003460441C03D00346062B02D008E0DBB2D4
:1004A000FAE732490B68DB0702D06FF001030B60FB
:1004B00006280AD1032A08D0042A06D0052A04D027
:1004C0002B48016841F48061016023487438016859
:1004D00041F470010160BFF34F8FBFF36F8F4FF096
:1004E0001021D1F80002002803DBD1F80402002813
:1004F00022DA204A176020480368002BFCD015231D
:10050000C1F800320468002CFCD0C1F80432016844
:100510000029FCD0156001680029FCD0BFF34F8F83
:100520000D48F0380168154A01F4E061114301609B
:10053000BFF34F8F00BFFDE7124911480860F0BDBF
:10054000E00F00F0E80F00F0403501400DF0ADBACB
:1005500000C007403C050040FCED00E010560040A4
:100560000404001020C50040E40E004000040040D8
:100570003C17004004E5014000E401400400FA0596
:100580000090D0030000002002E008C8121F08C13C
:10059000002AFAD170477047002001E001C1121F04
:1005A000002AFBD1704700002DE9FC410646C00738
:1005B0004FF000050ED0104F00240122385D009549
:1005C00000231146019500F055F8641C042CF4D367
:1005D00000F02EF8B0070DD5074E0024361D00227E
:1005E000305D032300951146019500F043F8641C2B
:1005F000042CF4D3BDE8FC81B606000007490B5C6F
:100600004FF0A041D1F804250120984020EA0203D0
:10061000C1F808351040C1F80C057047B606000057
:100620000249085C012100F037B80000B60600005E
:1006300010B500242046FFF7F3FF641C042CF9D307
:1006400010BD00000120FFF7AFFF094C4FF4FA780E
:100650004FF47A4700263046FFF7D0FF4546611C2D
:10066000384688476D1EFAD1761C042EF3DBF1E77D
:10067000B006000070B541EA4201DDE904564FF0D2
:10068000A04441EA830141EA052104EB800041EAEC
:100690000641C0F8001770BD01224FF0A043824010
:1006A00011B1C3F808257047C3F80C257047000046
:1006B0000338FDD87047111213140D0E0F100000EF
:1006C000E006000000000020040000008805000093
:1006D000E40600000400002004200000980500004B
:0406E0000090D003B3
:0400000500000201F4
:00000001FF
