:020000040000FA
:1000000058370020FD020000050300000703000030
:10001000090300000B0300000D03000000000000B6
:100020000000000000000000000000000F030000BE
:10003000110300000000000013030000150300007E
:100040001703000017030000453200001D300000B8
:100050001703000017030000692F000017030000BA
:100060001703000017030000170300001703000028
:100070001703000017030000170300001703000018
:10008000170300000D3000001703000017030000E5
:1000900017030000170300001703000017030000F8
:1000A00017030000170300001703000017030000E8
:1000B000170300001703000000000000000000000C
:1000C00017030000170300001703000017030000C8
:1000D00017030000170300001703000017030000B8
:1000E00017030000170300001703000000000000C2
:1000F00000000000170300000000000017030000CC
:1001000000000000000000000000000000000000EF
:1001100000000000000000000000000000000000DF
:1001200000000000000000000000000000000000CF
:1001300000000000000000000000000000000000BF
:1001400000000000000000000000000000000000AF
:10015000000000000000000000000000000000009F
:10016000000000000000000000000000000000008F
:10017000000000000000000000000000000000007F
:10018000000000000000000000000000000000006F
:10019000000000000000000000000000000000005F
:1001A000000000000000000000000000000000004F
:1001B000000000000000000000000000000000003F
:1001C000000000000000000000000000000000002F
:1001D000000000000000000000000000000000001F
:1001E000000000000000000000000000000000000F
:1001F00000000000000000000000000000000000FF
:10020000DFF810D000F03AFC00480047B947000082
:10021000AFF300805837002030B4044654E8000F94
:100220000D4644E80053002BF8D1156030BC7047F0
:1002300030B4044654E8000F40EA010544E8005396
:10024000002BF7D1156030BC704730B4044654E839
:10025000000F00EA010544E80053002BF7D11560B8
:1002600030BC704730B4044654E8000F80EA010502
:1002700044E80053002BF7D1156030BC704730B410
:10028000044654E8000F00EB010544E80053002B3E
:10029000F7D1156030BC704730B4044654E8000F05
:1002A000A0EB010544E80053002BF7D1156030BCEA
:1002B000704770B404464FF0000054E8006F0D68BA
:1002C000AE4207BF44E80023012044E800630E600B
:1002D000002B1CBF0020F0E770BC704730B4044610
:1002E00054E8000F88422CBF451A054644E80053E5
:1002F000002BF5D1156030BC7047000006488047E0
:1003000006480047FEE7FEE7FEE7FEE7FEE7FEE7FA
:10031000FEE7FEE7FEE7FEE77130000001020000A5
:100320002DE9F05F0546002092469B46884606462A
:10033000814640241BE0284641464746224600F0BD
:100340004EFA53465A46C01A914110D311461846E8
:10035000224600F016F82D1A67EB01084F46224698
:100360000120002100F00DF817EB00094E41201E7E
:10037000A4F10104DFDC484631462A464346BDE885
:10038000F09F202A04DB203A00FA02F10020704797
:100390009140C2F1200320FA03F3194390407047C3
:1003A000004870478468000040EA01039B0703D0BF
:1003B00009E008C9121F08C0042AFAD203E011F8A4
:1003C000013B00F8013B521EF9D27047D2B201E066
:1003D00000F8012B491EFBD270470022F6E710B54A
:1003E00013460A4604461946FFF7F0FF204610BDA3
:1003F000421C10F8011B0029FBD1801A70472DE91F
:10040000FE4F804681EA0300C00F0C46009021F0A9
:10041000004123F00045B8EB0200A94105D2404657
:10042000214690461C460B46024623F000401043EE
:1004300047D0270DC7F30A00C3F30A510290401AB0
:10044000019040286BDAC3F3130040F4801B00983E
:10045000924620B10023D2EB030A63EB0B0B019809
:100460005946C0F140025046FFF78BFF06460D4645
:1004700050465946019A00F0C2F910EB080061415C
:10048000002487EA115284EAE7731A4340D0009AA5
:1004900062B3019A012A4FEA075215DC001B61EB97
:1004A00002014FF0004202EA0752CDE90042001C6F
:1004B00041F5801132462B4600F0F9F903B0BDE852
:1004C000F08F40462146F9E7001B61EB0201001C5A
:1004D00041F5801300185B412018A2F5001747EB87
:1004E000030140EAD570B6196D4111E06D084FEA7D
:1004F000360645EAC0754FEA0752001B61EB020160
:10050000001C41F5801149084FEA300000195141A3
:1005100032462B4603B0BDE8F04F00F0B9B9009861
:10052000012240000023D0EB020263EBE07300984D
:1005300021464FEAE074B8EB000061EB0401E9E703
:1005400083F000435BE781F0004158E72DE9FE4F5F
:1005500081EA030404F0004421F0004100944FF0CC
:10056000000B23F0004350EA01045ED052EA03047A
:100570005BD0C3F30A54C1F30A552C44A4F2F334FC
:100580000194A0FB0254C1F3130141F48011C3F3A1
:10059000130343F4801301FB024400FB034E840A5F
:1005A000970A44EA815447EA8357A4FB07680295F7
:1005B0008D0A05FB07854FEA932C04FB0C54270595
:1005C000029D4FEA065847EA1637B5EB08056EEB71
:1005D000070C870E920E47EA811742EA8312A7FBA7
:1005E0000201B6EB0B0164EB00042B0D43EA0C3364
:1005F0005E1844EB1C50DA465146E7FB0201C5F396
:1006000013044FEA0B3343EA14534FEA0432019CBC
:1006100043EA0603A4F10C040294009CCDE900B463
:1006200000F045F903B0BDE8F08F00200146F9E77E
:100630002DE9F04D81EA030404F0004B21F0004560
:1006400014464FF0000A23F0004150EA050220D082
:1006500054EA01021DD0C5F30A570246C5F313033D
:10066000C1F31300C1F30A5640F4801543F480131C
:10067000A7EB0608101BD64608F2FD3873EB050001
:1006800002D308F1010801E092185B41B8F1000FB4
:1006900003DA00200146BDE8F08D00204FF4801100
:1006A000064684460EE0171B73EB050705D3121BA5
:1006B00063EB050306434CEA010C49084FEA30009E
:1006C00092185B4150EA0107EDD152EA030012D0C3
:1006D00082EA040083EA0501084305D0101BAB4100
:1006E00006D20122002306E000224FF0004302E080
:1006F0006FF0010253101AEB06004CEB085110EB9F
:100700000A0041EB0B01BDE8F04D00F0C1B8F0B4B8
:10071000CA17CB0F50405140C61841F100054FEAAF
:10072000C372314628004FF0960303D0B623F0BCC5
:1007300000F080B830460021F9E70EB540F23341B1
:1007400002910021CDE900110A460B4600F0AFF8F6
:1007500003B000BD00F0004230F000400AD0C10DEF
:1007600001F56071C0F3160042EA0151C20840076A
:100770001143704700200146704701F0004330B438
:1007800021F0004150EA010206D00A0DA2F5607284
:10079000C1F31301002A02DC30BC00207047440F73
:1007A00044EAC104C100E01830BC00EBC25000F0C4
:1007B00038B830B50B46014600202022012409E05C
:1007C00021FA02F59D4205D303FA02F5491B04FA0A
:1007D00002F52844151EA2F10102F1DC30BD202AE9
:1007E00004DB203A21FA02F00021704721FA02F3DB
:1007F000D040C2F120029140084319467047202A98
:1008000006DBCB17203A41FA02F043EAE07306E038
:1008100041FA02F3D040C2F1200291400843194648
:1008200070470029A8BF7047401C490008BF20F04E
:100830000100704710B4B0FA80FC00FA0CF050EAE6
:10084000010404BF10BC704749B1CCF1200421FA67
:1008500004F411FA0CF118BF012121430843A3EB62
:100860000C01CB1D4FEA00614FEA102042BF00206F
:1008700010BC704700EBC35010440029A4BF10BC4B
:100880007047401C490008BF20F0010010BC7047B1
:1008900010B5141E73F1000408DA401C41F1000188
:1008A00092185B411A4301D120F0010010BD2DE9DF
:1008B000F04D92469B4611B1B1FA81F202E0B0FAD6
:1008C00080F220329046FFF75CFD04460F4640EA76
:1008D0000A0041EA0B0153465A46084313D0114619
:1008E00053EA010019D0C8F140025046FFF777FFE4
:1008F00005460E46504659464246FFF742FD08431C
:1009000005D0012004E020463946BDE8F08D0020E6
:10091000054346EAE0762C4337430A986305E40A28
:10092000A0EB08000022FD0A44EA47540A3002D531
:1009300000200146E9E7010510196941DDE9084594
:1009400000196941BDE8F04DA2E72DE9F04D002303
:100950001A461B1A8A4103DB00200146BDE8F08DD0
:10096000C1F30A52C1F3130141F480154FF0000B9B
:10097000D10702D100186D41521E0027044640F2F3
:10098000FF11384601EB620A3E46804602460020CF
:100990004FF48011FFF723FFC2197141BB1846EBDA
:1009A0000100B4EB030C75EB000C04D3E41A65EB07
:1009B000000517460E46241908F101006D418046D6
:1009C0003428E3DDF91946EB0600091BA84103D2E0
:1009D0004FF0FF32134601E0002213461BEB0700E5
:1009E00046EB0A51BDE8F04DFFF752BFC1F30A5282
:1009F000C1F3130140F2FF3341F480119A4202DA4D
:100A000000200146704740F233439A42A2F233423B
:100A100002DC5242FFF7E3BEFFF7B3BC30B5041E61
:100A200071F1000404DB4FF00044404264EB01012B
:100A3000141E73F1000405DB1C464FF000435242C4
:100A400063EB04038B4208BF824230BD30B5041E05
:100A500071F1000404DB4FF00044404264EB0101FB
:100A6000141E73F1000405DB1C464FF00043524294
:100A700063EB0403994208BF904230BD064C074D1A
:100A800006E0E06840F0010394E80700984710345E
:100A9000AC42F6D3FFF7B8FBF0690000106A000023
:100AA00070B58C1810F8015B15F0070301D110F830
:100AB000013B2A1106D110F8012B03E010F8016B5D
:100AC00001F8016B5B1EF9D12B0705D40023521EE0
:100AD0000DD401F8013BFAE710F8013BCB1A921C48
:100AE00003E013F8015B01F8015B521EF9D5A14246
:100AF000D8D3002070BD000008B5684601F0E4FFBF
:100B00001348002190ED000A009880ED070A41602B
:100B10004FF400719FED0F0A816080ED0C0A4FF0D9
:100B2000FF31C162B7EE000A80ED0A0A01219FED94
:100B30000A0A416280ED180A816403219FED070AC9
:100B4000016580ED170A9FED060A80ED0D0A08BDCC
:100B50002800002000401C460000F042008089442C
:100B6000C3F5E83F30B595B000F060FC00F0A2FCA2
:100B7000012500248DF824508DF827408DF826504B
:100B80008DF825400594CDE9064505A8089500F0A7
:100B900008F90220019002900390042004908DF83F
:100BA0000040684600F00DFB8DF80050684600F0EC
:100BB00008FB8DF82D408DF82E408DF82F500A95AA
:100BC0008DF82C400AA80C9401F0F2FA0122951E2F
:100BD0002946104600F038FC01225106002000F0A2
:100BE00033FC284600F046FC42F62C200D9077207E
:100BF000CDE90E0411940DA8109400F0AEF80F4842
:100C000001F078FC9FED0E0A0F498DED130A9FED60
:100C10000D0A12948DED140A12A800F083FC0A4804
:100C20000068FFF797FD41EC100B08A053EC102B68
:100C300002F00EFB15B0002030BD0000E5470A00B1
:100C400000007A440024744B28000020467265712D
:100C50003A25660A00000000D0E90012008941EA46
:100C6000022141EA004142F2A81001F025BE10B570
:100C70000446018842F2A80001F01EFE618842F29B
:100C8000AC0001F019FEA18842F2B00001F014FEA0
:100C9000E188BDE8104042F2B40001F00DBE70B52D
:100CA000044642F24405284601F012FA00F08001A1
:100CB000E0680843217C012901D140F01000617CEB
:100CC000012901D140F04000616840EA012021681B
:100CD00040EA0130A16840EA8131284601F0ECFD8C
:100CE000A07C002805D0BDE870400121080400F078
:100CF00001B870BD70B504464FF400550E46284645
:100D000001F0E6F924F02001012E4FEA846211D0AF
:100D1000002A02DA40F020000C46210303D540F4FB
:100D2000002024F40024A04301462846BDE870407A
:100D300001F0C2BD002A02DA20F020000C46210397
:100D400003D520F4002024F400242043ECE740EAFB
:100D5000810142F2F02001F0AFBD10B504460068F9
:100D600000F00FF8606800F014F8A06800F00DF8CB
:100D7000E06800F012F82169BDE81040142001F08D
:100D80009BBD0146002001F097BD01460C2001F0FB
:100D900093BD0146042001F08FBD0146082001F0FB
:100DA0008BBD2DE9F04105464FF42166304601F038
:100DB0008FF90446E87C4CF6143740F60C280128DD
:100DC0000ED144F004043946404601F075FD214639
:100DD000304601F071FD304601F07AF94005FAD550
:100DE000287C012814D144F002043946404601F021
:100DF00063FD2146304601F05FFD304601F068F9A1
:100E00008005FAD5687C012800D0002000F068FA3F
:100E1000A87C01280ED144F001043946404601F077
:100E20004BFD2146304601F047FD304601F050F9B8
:100E3000C005FAD5287A297B00F03F0001F00F01A8
:100E400040EA81114FF4816001F036FD0A2000F084
:100E500089F9D5E9000140EA810140F2144001F02E
:100E60002BFDE87C08B924F00404287C08B924F0A0
:100E70000204A87C08B924F001043946404601F078
:100E80001BFD21463046BDE8F04101F015BD0000D4
:100E90002DE9F0439BB00E46044600253422584904
:100EA00008A80295FFF780FA554B16AF3433002C93
:100EB0000FCB87E80F00356079D0002E77D0E3683C
:100EC0000B2B74D8A268022A71D8216903296ED825
:100ED000D4F800C0022701204FF00409BCF1050F2F
:100EE0007BD2DFE80CF0031029653C006068D4ED8C
:100EF000070A00EB8000800000EE100AB8EE400AFE
:100F000020EE200A13E016A9606851F82210801C18
:100F10004843401C00EB8000800000EE100A94ED76
:100F2000071AF8EE400AB6EE000A00EE810ABCEE9F
:100F3000C00A8DED020A50E008AA616852F8232029
:100F4000491C5143491C029120600298606002A92B
:100F50002046FFF79DFF276002980F303CE0207E7F
:100F60000690A0680390E0680490002515A903A8E6
:100F700000F07CFF18B19DF85400401EC5B201A9D5
:100F800003A800F0D7FF20B19DF804002844401EBC
:100F9000C5B22760606802A9284460602046FFF758
:100FA00077FFC4F800906068401B606015E016E0B1
:100FB0006269BAB1012A06D0022A02D0032A07D1F7
:100FC00017E0256000E0206002A92046FFF760FFDF
:100FD00003202060029819300290029830601BB004
:100FE000BDE8F083607E08B12760EDE7C4F80090AB
:100FF000EAE720606068491C88406060E4E7000020
:10100000F0650000024900204860012070470000A0
:101010000000002091ED001AD1ED010AB8EEC10ADE
:10102000B8EEE02AF8EEC12AF8EEE03A60EE001AD7
:10103000B8EEE00AB8EEC11AF8EEE00A40EE021A85
:1010400090ED002AB8EEC20AB8EEC22A20EE223A8B
:10105000D0ED012AB8EEE20AF8EEE22A00EE233AD9
:1010600022EE811A02EE601A83EE210AC1EE210AF5
:10107000704710B590ED000AD0ED010A20EE000A8D
:1010800000EEA00A10EE100AFFF764FB41EC100B13
:1010900002F0BAFB51EC100BFFF76FFB00EE100AE9
:1010A00010BD10B504462DED028B0068FFF752FB12
:1010B00041EC180B6068FFF74DFB41EC100BB0EEF4
:1010C000481AF0EE681A02F09FFA51EC100BFFF785
:1010D00054FBBDEC028B00EE100A10BD142003F08F
:1010E000A7BE142003F00CBF70B5044642F24406BC
:1010F0000025304600F0ECFF616803290ED020F097
:101100008001304601F0D8FBA08845EA00552068F0
:1011100045EA0011207A012806D007E040F080015E
:10112000304601F0C9FBF2E741F00101BDE8704033
:1011300042F2D00001F0C0BB10B50446FFF78CFDB1
:1011400004F10C00FFF7ABFD04F12000FFF78FFD69
:1011500004F12800FFF7C8FF04F13400BDE8104097
:1011600001F0CDB910B5040012D00E4904EB840093
:10117000B1EB400F0DD904EB841081004FF0E0205B
:101180004161052101610169C903FCD500210161AB
:1011900010BD6008FFF7E6FF04F0010000EB54000B
:1011A000E1E700009DD8090010B542F21C140021AF
:1011B000204601F081FB2046BDE81040012101F0EE
:1011C0007BBB70B5044642F208050021284601F0B9
:1011D00073FB42F2D816304600F07AFF616800F0E7
:1011E0003F0040EA4120A16840EA8111304601F009
:1011F00063FB208A010442F2E01001F05DFB2178DC
:101200000020012900D1C802E16840EA41312846A6
:10121000BDE8704001F050BB0022012900D1CA0294
:1012200042EA403142F2080001F046BB10B54FF4EB
:10123000085000F04DFF000C10BD70B50D4606467D
:1012400003291FD2FFF74AFF202000F08DFF42F252
:101250006C0000F05DFFFFF744FF00240FE0FFF794
:101260003DFF6D2000F080FF002000F07DFF00209A
:1012700000F05DFF46F82400FFF733FF641CAC422A
:10128000EDD370BDFFF72AFF5F2000F06DFF002453
:10129000002000F069FF641C062CF9D30024AD1E69
:1012A00005E0002000F043FF46F82400641CAC4237
:1012B000F7D34FF04435284600F039FF46F82400B4
:1012C0002846641C00F033FF46F82400BDE8704057
:1012D000FFF707BF0148406870470000000000208A
:1012E0002DE9F04105464FF48266304600F0F0FEED
:1012F000C0F34021C0F300220902C0B241EA4224F7
:10130000044344F02001304601F0D6FA42F2BC0713
:10131000384600F0DDFE29464FF42165012910D042
:1013200040F00401384601F0C7FA284600F0D0FE2C
:101330008005FAD524F020013046BDE8F04101F0E7
:10134000BBBA20F00401384601F0B6FA284600F096
:10135000BFFE8005FAD5EDE702680021012A00D121
:1013600011034268012A01D141F00101007A41EAEA
:10137000400142F2100001F09FBA10B5044610304F
:10138000FFF7EAFF04F1500000F00AF8204601F0F0
:1013900093F804F11C00BDE8104001F0C1B8000052
:1013A0007FB504000CD020696FF00101032804D33D
:1013B0000B2802D86069052805D9084604B070BD1D
:1013C0006FF00200FAE742F2FC00216801F074FAC3
:1013D000D4E9011041EA4011207B012801D141F0FC
:1013E000100142F2F00001F067FAD4E904020B2880
:1013F00011D2032802D3C10040310DE00A4D052A65
:101400003ACD8DE83A0006D200EB800069460844E8
:10141000805CC10000E0F821114342F2F80001F0C5
:101420004BFA0020CAE70000A466000010B500F0E7
:10143000B9FEC820FFF796FE00F0B7FEBDE81040E9
:101440004FF4FA70FFF78EBE70B516460D4643F2A4
:101450000804012800D1241D204600F039FE012E89
:1014600006D0A84301462046BDE8704001F024BAEA
:101470002843F7E7014643F2040001F01DBA0000DB
:1014800020B143F20C0000BF00F022BE43F208007E
:10149000FAE7000010B50C4640B143F2140000BF5B
:1014A00000F016FE204000D0012010BD43F21000D5
:1014B000F6E7000070B59CB0702217496846FEF749
:1014C00073FF16480024C460446184610470FFF710
:1014D00008FE00254FEA0D0606EBC500416836F808
:1014E000350001F0E9F96D1C0E2DF5D340F20440F2
:1014F00000F0EEFD45F2015301220949984209D05E
:10150000A0F5AA43023B05D0B0F5AA4F00D10C705C
:101510001CB070BD0A70FBE7346600007801002043
:10152000170000202DE9F04705009EB00F466FF030
:10153000020007D0002F05D06868B0F17E5F04DAA2
:101540006FF001001EB0BDE8F0871AA800F0EAFEB7
:101550000120FFF795FF824601224FF400484146E3
:101560001046FFF771FF4FF0FF394846FFF782FF43
:1015700001240026CDE9184617A8179400F018FE9C
:101580004948009602940490286801908DF80C4018
:10159000684600F0E7FE00942868401CCDE901048D
:1015A0004148001D0490684600F0DCFE8DF858604C
:1015B000CDE90664042005941290D5ED010A9FED53
:1015C0003B1AB6EE000ACDF83C9000EE810ABCEE64
:1015D000C00A10EE100A401F0E90032013900E9EBA
:1015E00005A8761D01F036F84046FFF743FF0120BD
:1015F00001F0DAF841460120FFF74CFF0028F9D04E
:1016000000F008FF8146002001F0CEF804221146C8
:10161000002001F0DCF8009428688DF80C40401C94
:10162000019002200290204808300490684600F0A3
:1016300099FE012000F00BFE44464046FFF71AFFDA
:10164000012001F0B1F821460120FFF723FF002817
:10165000F9D000F0DFFE804621460020FFF71AFF98
:10166000002001F0A1F81AA800F0A2FDCAF3C032D0
:1016700021460120FFF7E8FE2046FFF7FBFE00EEC3
:10168000106AD5ED020AA8EB0900B8EE400A60EE38
:10169000800A00EE100A0020B8EE400A80EE801AA0
:1016A00087ED001A4EE70000E065000000000042F0
:1016B00010B504460020217E01B90220617E09B9DF
:1016C00040F001002169042917D040EAC100E16817
:1016D00040EA4110A16840EA8120616840EA413156
:1016E000206868B142F2E80001F0E6F8616942F270
:1016F000E000BDE8104001F0DFB840F00400E6E78C
:1017000042F2EC0001F0D8F842F2E4006169F0E73F
:1017100001F03F01C0F30B0040EA013142F220101A
:1017200001F0CAB801F03F01C0F30B0040EA0131FB
:1017300042F22C1001F0C0B810B504464068A16810
:10174000800140EA0110E16840EAC100616940EAB5
:101750008101207E08B941F00101607E08B941F0A5
:101760000201206880B142F2341001F0A5F8217F17
:10177000608BFFF7D7FF206940F0200142F2301064
:10178000BDE8104001F098B842F2281001F094F83A
:10179000217F608BFFF7BCFF206940F0200142F2FF
:1017A0002410EDE710B50446FFF7C6FF04F1200052
:1017B000BDE81040FFF77CBF2DE9F04F88462DEDC6
:1017C000048BEDB004464FF00009CA466C22FB4979
:1017D00045A8FEF7E9FDF94914226C3164A8FEF72B
:1017E000E3FD6FF00201002C7ED094ED018A4A10D7
:1017F000B5EEC08AF1EE10FA7CD0A0691A2879D82B
:10180000002877D0B8F1000F7AD0ED4AE168914214
:1018100001DD4FF0010994ED000AB5EEC00AF1EECA
:1018200010FA01D14FF0010A1FA92F9145A9CDF857
:1018300088D151F820603046FEF77FFF41EC190B4C
:1018400018EE100AFEF786FF9FEDDE1B53EC112BFE
:10185000FEF77CFE53EC192BFEF7EAFEFEF78DFF38
:1018600000EE100A9FEDD91AC0EE010A9FEDD80ACA
:10187000B0EE001A60EE800A60EE810AFCEEE00A2B
:1018800010EE900A401C450840F21650854200D9DF
:10189000054600EE905AF8EE600A9FEDCE1A20EE53
:1018A000811AC1EE000A9FEDCC0A38EE000A80EEE4
:1018B000801A00EE106AB8EE400A61EE000A00EEEF
:1018C000106AB8EE401A80EE810A60EE081A9FEDA9
:1018D000C31AC3494FF0814281EE210A8B024FF0B7
:1018E0007F5610EE100A01E00AE003E0884209DBAF
:1018F00004271AE010466DB0BDEC048BBDE8F08FF4
:101900000846F8E710EE100A904201DB03270CE0CE
:1019100010EE100A984201DB022706E010EE100AD2
:10192000B04201DB012700E0002781EE200A10EE23
:10193000100A884201DB042612E010EE100A9042E1
:1019400001DB03260CE010EE100A984201DB0226B0
:1019500006E010EE100AB04201DB012600E000268E
:1019600064A800EB860100EB870091ED000AD0ED42
:10197000000A4FF4005080EE208A00F0A9FB61902D
:101980000120FFF77DFD0122609006211046FFF740
:101990005BFD4FF0FF30FFF76DFD00219148FFF731
:1019A000A9F901F065FC40211FA800F0B7FD4FF038
:1019B000030BCDF890B0B9F1000F7DD00020259039
:1019C000606A2390206A229001208DF898004FF0E1
:1019D00000098DF8999004F128018DF89A0007C943
:1019E00029AB83E807001FA8FFF7A6FB3C2130A81E
:1019F00000F094FD206900B1012030904FF40060A8
:101A0000ADF8DA002020ADF8DC001120CDE9340972
:101A100001208DF8D8903190339032908DF8D90014
:101A200022693892E2698DF8F8008DF8F9000420F7
:101A30003C923A90A069494639913B90207D01281B
:101A40007DD0002040F4A0703D9030A8FFF7AAFEA2
:101A50007021684600F062FD8DF85C90216948466F
:101A600000296DD0022114911F21169105210B220E
:101A7000CDE918218146159004900590FF2006902D
:101A8000CDE91A21206900287DD0802040F0010096
:101A9000009001200190400202904FF410600390EA
:101AA0005FEA0A004FF0020A6FD04FF0FF30CDF826
:101AB0001C901395699000E097E08DF820908DF8C8
:101AC00021906846FFF759FC05F5006000F078FDAD
:101AD00001214FF49940FFF70DF90120009001908A
:101AE000400202904FF410600390629800F0E4FC12
:101AF0004FF47A70FFF736FB1420209024201F90BB
:101B000021972F98FFF7A8F83220FFF72BFB69A841
:101B100001F0D0FB05462069B0B32220CDE91F0BB0
:101B200021962F98FFF798F83220FFF71BFB69A842
:101B300001F0C0FB4090206940B3802001E056E0F6
:101B400057E040F001000090012001904002029017
:101B50004FF410600390629800F0AEFC4FF47A707E
:101B6000FFF700FB1420209024201F9021972F982E
:101B7000FFF772F83220FFF7F5FA69A801F09AFB37
:101B8000401B4D4603E036E037E040E039E0CDE968
:101B90004109206940B32220CDE91F0B21962F98DF
:101BA000FFF75AF83220FFF7DDFA69A801F082FB4F
:101BB00001464098081ACDE94305BAE000670000E5
:101BC0000050C34B00000000000099400080094510
:101BD00000E0FF440000FA440000C84200803B459A
:101BE00000001041E0FF39000DE00120E7E6202071
:101BF00028E7012137E7402048E72120CDE91F0AE7
:101C00008EE740209AE72120CDE91F0AC6E710950C
:101C1000D4ED020A94ED000A00F0DCFCCDF8489007
:101C2000CDF844900F908DF820905546CDF81CA02B
:101C3000CDF84C908DF821906846FFF79EFB02206E
:101C4000FFF718FC01214FF44060FFF753F86420C0
:101C5000FFF788FA1420209024201F9021972F98B6
:101C6000FEF7FAFF4FF4814701213846FFF742F8AB
:101C70001920FFF777FA4FF4014A01215046FFF788
:101C800039F802210120FFF705FC0028F9D00021D6
:101C90004CF28010FFF72EF80220FFF7EBFB032039
:101CA00000F0F4F94190042000F0F0F9429020692E
:101CB00000287DD02220CDE91F0B21962F98FEF71A
:101CC000CBFF01213846FFF715F81920FFF74AFA34
:101CD00001215046FFF70EF802210120FFF7DAFB41
:101CE0000028F9D000214CF28010FFF703F8022001
:101CF000FFF7C0FB032000F0C9F94390042000F077
:101D0000C5F94490419937488A0301D5014341916F
:101D10004299890302D542990143429143998A032A
:101D200001D5014343914499890302D54499014364
:101D30004491449841A94042449042984042429084
:101D400043A8FFF767F98DED1C0ACDED1D0AD4ED10
:101D5000011A81EE881A21EE000A8DED1C0A94ED1D
:101D6000011AC1EE081A61EEA00ACDED1D0A606BE2
:101D700090B31CA8FFF77DF988ED000A1CA8FFF7B7
:101D800090F900BF88ED010A6098800704D4002212
:101D900002210120FFF758FB6098400704D400227D
:101DA00004210120FFF750FB4FF40050619900E03F
:101DB0000EE000F081FDCDF80090CDF80490CDF854
:101DC00008906846CDF80C9000F076FB002092E574
:101DD0002120CDE91F0570E7FFE788ED000A9DEDA2
:101DE0001D0ACFE70000FCFF1FB50E4B0FCB8DE89F
:101DF0000F0014208DF8030016208DF80200152026
:101E00008DF8010017208DF8000006480023064ACF
:101E10006946103802F0DCFD08B102F081FA04B026
:101E2000002010BDD0650000BD5F000008B5FEF7C2
:101E300099FEFEF761FE4FF47A7421460A4800F0DD
:101E40009FFE0021084600F0E7FD00BFFFF742FAC1
:101E50000028FBD069460448009400F03FFE024889
:101E6000009900F057FDF1E79401002010B50C46F1
:101E7000C16886B0012902D029B12ED042E00168A4
:101E8000022903D02CE00168022911D01FA16B4662
:101E9000D1E90021CDE901211EA1D1E90021CDE93F
:101EA00003210079052228E003A89DF800100FE027
:101EB0001AA102AB0968009119A1032209680191D6
:101EC0000079694601F058FEE0B19DF8081001A8BC
:101ED000405C2070012006B010BD0168022911D0BD
:101EE00010A26B46D2E90012CDE901120FA2D2E98D
:101EF0000012CDE903120079062201A901F03CFE8F
:101F00000028D1D100202070E5E70000050708096E
:101F10000B0000000F0C0A0906000000090A0B0064
:101F2000120F0C0003040506080A0000120C060537
:101F30000403000010B50C46C16886B0012902D028
:101F400029B11FD03AE00168022903D01DE00168E1
:101F5000022908D01BA1096800911BA107E001A874
:101F60009DF8081025E019A10968009118A102AB9D
:101F70000968019100790222694601F0FDFD0028FF
:101F8000EDD11BE00168022918D012A26B46D2E9FC
:101F90000012CDE9011211A2D2E90012CDE903121B
:101FA0000079062201A901F0E7FD38B19DF8001083
:101FB00003A8405C2070012006B010BD00202070F6
:101FC000FAE70000070B00000A050000090B0000FB
:101FD0000F0A000003040507090B00000F0A05049F
:101FE0000302000070B504464FF40055284600F087
:101FF0006FF820F02001207808B941F02001284630
:1020000000F05AFC4FF40655284600F061F80146EE
:102010006078012801D141F00101A078012801D1A7
:1020200041F01001E078012801D141F0040120794C
:10203000012801D141F02001607A012801D141F449
:102040008071A07A012801D141F00201E07A0128D3
:1020500001D141F00801207B012801D141F040016C
:10206000284600F029FCA079002100B902216079FE
:1020700008B941F00101E079012801D141F00401E2
:10208000BDE8704042F2500000F016BC014600204E
:1020900007291BD2DFE801F004070A0D1013160010
:1020A00042F2740010E04FF402500DE042F284005E
:1020B0000AE042F2780007E042F27C0004E042F2DB
:1020C000C81001E04FF4075000F002B8704700005C
:1020D00038B50E4D2978012903D0BDE8384000F00D
:1020E000C5B90446694600F005F940B1204600F044
:1020F000BDF905460146204600F070F904E0286964
:10210000009950F82100050A284638BD78010020C2
:102110001CB5010A8DF800108DF80100022201A9FA
:10212000684600F02DF8BDF8040040BA1CBD1CB58F
:10213000010E8DF80010010C8DF80110010A8DF8C8
:1021400002108DF80300042201A9684600F018F877
:10215000BDF804009DF8061040BA000440EA0120D2
:102160009DF8071008431CBD1CB501228DF8000026
:1021700001A9684600F004F89DF804001CBD0000A9
:102180001FB507490722CB1D14468DE81E000348E2
:102190000022694603F04EFB1FBD0000C46500002D
:1021A000080000201D2002F043BE1D2002F0A8BE42
:1021B0002DE9F041044642F208052846FFF788FF62
:1021C00007460021284600F077FB42F2D816304639
:1021D000FFF77EFF20F03F00216840F00800014338
:1021E000304600F069FBE0792E1F40B100213046F7
:1021F00000F062FB002142F2640000F05DFB2179F7
:102200000020012900D10120A16840EA01213046C7
:1022100000F052FB39462846BDE8F04100F04CBBC7
:102220002DE9F04114460D46074642F2D41642F21B
:10223000700808E039467F1C304600F03DFB02CDB7
:10224000404600F039FB641EF4D2BDE8F08170B561
:10225000044642F204052846FFF73AFF012C06D057
:1022600020F001012846BDE8704000F025BB40F099
:102270000101F7E7044A002120B1D16001209161FA
:10228000107070471170704778010020044A08B13F
:102290009368036009B1D0680860906970470000D6
:1022A0007801002002290BD3064AC2E9011000EB95
:1022B0008100001F10610020D0605061906110709B
:1022C0007047000078010020094910B54B69CA68C1
:1022D0004C6813449C4206D98B6843F82200C868B6
:1022E000401CC86010BD6FF00300886110BD000085
:1022F0007801002030B50A4AC0F387040020D2E9F3
:10230000043207E013F82050A54202D108600020F3
:1023100030BD401C8242F5D86FF0060030BD000091
:102320007801002010B5040014D042F2D810FFF755
:10233000CFFE00F0070020600020E07142F20400B0
:10234000FFF7C6FE00F001012171C0F30720A06075
:10235000002010BD6FF0020010BD014642F2540093
:1023600000F0AABA10B50446006830B101280BD0BD
:1023700002281BD003280FD11FE02189606840EAA2
:10238000014142F2CC1005E02189606840EA014138
:1023900042F2E81000F090FA207B012814D1D4E931
:1023A00001022169BDE81040FFF73ABF218960684A
:1023B00040EA014142F2D010ECE72189606840EA2E
:1023C000014142F2E410E5E710BD032805D80121E0
:1023D00081404FF4866000F06FBA70470C4A10B528
:1023E000D4685369234454689C420DD9136980080A
:1023F0001B1F136118701069036861F31F230360CA
:102400005069401C506110BD6FF00300906110BD19
:102410007801002042F26800FFF75ABEF8B5124F6B
:102420000C460646B0F5085F03D36FF00400B861B0
:10243000F8BD6946FFF75EFFC6F3860558B1214631
:102440003046FFF7CBFF00BF65F31F6444F0004048
:10245000FFF73AFFF8BD3869009950F8212064F37E
:102460001F2240F82120EFE77801002010B5044634
:10247000FEF734FE2020FFF777FE2046FFF748FEE8
:10248000FEF72FFEFEF72AFE6D20FFF76DFE0020FF
:10249000FFF76AFE42F21400A4F5805484424FF024
:1024A000000002D8FFF743FE01E0FFF731FE0446CB
:1024B000FEF717FE204610BD10B50446016842F233
:1024C000501000F0F9F942F25810616800F0F4F988
:1024D00042F25410A16800F0EFF942F25C10E1689A
:1024E00000F0EAF9BDE810404FF4803142F20C00F0
:1024F00000F0E2B9014642F2181000F0DDB9027AAC
:102500000021012A00D101214268006841EA02113C
:1025100041EAC01142F2C41000F0CEB9FDF75DBF30
:1025200010B50446006802280BD003281CD042F2E4
:102530004800216B00F0C0F921790020012930D03A
:1025400030E042F23000216A00F0B6F942F23C007D
:10255000616A00F0B1F942F23800A16A00F0ACF90A
:1025600042F23400E16AE5E742F21800A16800F0A7
:10257000A3F942F21C00E16800F09EF942F220004B
:10258000216900F099F942F22800616900F094F99C
:1025900042F22400A16900F08FF942F22C00E169B7
:1025A000C8E720206179012901D140F0100021689D
:1025B000BDE8104040EA410142F2140000F07CB94D
:1025C00010B5C0F30B0142F2480000F075F900208D
:1025D00010BD000010B51D481A242DED028BB0EE81
:1025E000608A0078F0EE408A012800D11E24B5EE02
:1025F000C08AF1EE10FA03D10020BDEC028B10BDB1
:10260000224601200021FDF7BCFEFEF780F800EE17
:10261000100A0F496FF07F4220EE280A1A2CC0EEF4
:10262000080AB6EE000A30EE800ABCEEC00A10EED0
:10263000100A06D013468342DFD21A2C03D010466C
:10264000DBE70B46F7E70846D7E700001700002056
:10265000FFFF0F0010B50446808E81B240F60800DF
:1026600000F02AF9606BC0F3034140F60C0000F063
:1026700023F9A08C81B24FF4016000F01DF9606A6B
:10268000C0F3034140F6140000F016F9208F81B228
:1026900040F6180000F010F9A06BC0F3034140F6BB
:1026A0001C0000F009F9208D81B24FF4026000F0A7
:1026B00003F9A06AC0F3034140F6240000F0FCF8DF
:1026C000A08F81B240F6280000F0F6F8E06BC0F36E
:1026D000034140F62C0000F0EFF8A08D81B24FF4DA
:1026E000036000F0E9F8E06AC0F3034140F634000B
:1026F00000F0E2F8B4F8400081B240F6380000F093
:10270000DBF8206CC0F3034140F63C0000F0D4F845
:10271000208E81B24FF4046000F0CEF8206BC0F33D
:10272000034140F6440000F0C7F8012140F61C20A8
:1027300000F0C2F82079217A00F0030001F00301D3
:1027400040EA8100217B01F0030140EA0110217C75
:1027500001F0030140EA8110217D01F0030140EA0C
:102760000120217E01F0030140EA8120217F01F058
:10277000030140EA013094F8201001F0030140EA1F
:10278000813140F6040000F097F894F844100020DE
:10279000012900D101202168BDE8104040EA410133
:1027A0004FF4006000F088B870B504464FF400653F
:1027B0002846FFF78DFC80B220F00101012C01D1E9
:1027C00041F001012846BDE8704000F075B870B5D1
:1027D0000E46C2F30345C1F3034440B1012819D0AA
:1027E00002282DD003283ED06FF0010070BD91B2B9
:1027F00040F6080000F060F8294640F60C0000F0B2
:102800005BF8B1B24FF4016000F056F8214640F693
:10281000140011E091B240F6180000F04DF829467E
:1028200040F61C0000F048F8B1B24FF4026000F02E
:1028300043F8214640F6240000F03EF8002070BD29
:1028400091B240F6280000F037F8294640F62C00F7
:1028500000F032F8B1B24FF4036000F02DF82146D9
:1028600040F63400E8E791B240F6380000F024F872
:10287000294640F63C0000F01FF8B1B24FF4046066
:1028800000F01AF8214640F64400D5E72DE9F04162
:10289000054600244FF4806744F244163846641C11
:1028A000FFF716FCB04203D0002DF7DDAC42F5D99E
:1028B0002046BDE8F081000070B5154A1278012A63
:1028C0001AD005460C46FEF709FC2020FFF74CFC09
:1028D0002846FFF71DFCFEF704FCFEF7FFFB2D204A
:1028E000FFF742FC42F21400A5F58055854207D857
:1028F0002046FFF71CFC06E0BDE87040FFF78EBDE8
:10290000A0B2FFF705FCBDE87040FEF7EABB00008F
:102910007801002070B50D46064600240DE000BF8A
:1029200056F82400FDF716FF41EC100B214653EC3E
:10293000102B04A000F08CFC641CAC42F0D30020EF
:1029400070BD0000696E6465783A25642C2043757B
:102950007272656E743A256675410A0000B500F022
:102960000FF8054890ED151AC0EE010A9FED030A15
:1029700020EE800A00BD00002C000020002474C955
:102980002349234A9FED201AC96B9FED200ADFEDF2
:10299000211AD2ED0D0AA0F50040052933D2DFE857
:1029A00001F0030A0D19240000EE100AB8EEC00A67
:1029B00020EE210A0BE0B7EE080A18E000EE100A3C
:1029C000B8EEC00A20EE210AF6EE001A0AE020EE68
:1029D000200A16E000EE100AB8EEC00A20EE210A26
:1029E000F5EE001A60EEA10AF1E7B2EE020A80EEFF
:1029F000802A00EE100AB8EEC00A20EE210A22EE6C
:102A0000000A20EE010A7047110E813F000000000D
:102A10002C0000200000003870B50100294D94B052
:102A20004FF000044FF0010642F2740006D0012975
:102A300025D002292CD0042941D12CE0FFF748FBF6
:102A400095F86C00B8B103208DF8446000940194AF
:102A5000099095ED070AD5ED0A0A20EE200ABCEE92
:102A6000C00A10EE100A401F0D906846FFF7F2FDF5
:102A7000C5F89C4023E06FF0630014B070BDFFF711
:102A800027FB0020FFF790FE0020FFF78DFE16E0E9
:102A900085F8986013E000210120FFF7BDFF0F9437
:102AA000109411940FA81294FFF79CFA3C216846E9
:102AB000FDF793FC6846FEF775FEFEF775FB0020F8
:102AC000DBE700002C00002018B103490160002062
:102AD00070476FF0010070472C0000202DE9F04195
:102AE00005460E460A20FFF7D1FE0A2803D96FF0EB
:102AF0000800BDE8F0810020FFF7FCFC00204FF04B
:102B0000007739463060FEF7C5FC012832D1FEF768
:102B10008DFB044601462846FEF78FFB3846FEF73C
:102B2000A9FC1548C26A002A07DDD0F89C1001EB09
:102B30009401C0F89C10914203D290F898000128AB
:102B400002D10020FFF730FE0C48FFF7D3FC002332
:102B50000CE000BF35F8230080B245F82300FFF7F2
:102B6000FDFE05EB83005B1C80ED000A2046A342BE
:102B7000F0D330600020BCE72C000020E5470A00BD
:102B80002DE9F041804688B00F460A20FFF77EFE0F
:102B90000A2804D96FF0080008B0BDE8F0810025CC
:102BA00001268DF805508DF806508DF807600096C7
:102BB0008DF8045068460295FFF7FAFA344C207DF0
:102BC000012802D094F86C0010B994F86400F0B1B8
:102BD00094ED1A0A84ED150A00210120FEF71CFB72
:102BE00002208DF80C6004900590606C0690606A7D
:102BF000079003A8FEF7E5FA4FF0FF30FEF73AFC26
:102C000094F86C0038B12078012804D017E000F067
:102C100041F82575E0E76FF00100B8F1000FBBD077
:102C2000002FB9D039464046FFF73CFB00F076F85C
:102C30000028B1D100F03AF90028ADD12570144830
:102C400084F87C507030FFF78DFB8DF80460684687
:102C5000FFF7AEFA206FFFF7B8FB4FF40047394695
:102C60000120FEF717FC0028F9D0094884F890509D
:102C70008430FFF777FB0120FFF7E9FAFEF7C2F98E
:102C80000321A06BFEF763F884F86C60002083E7F3
:102C90002C00002010B590B038216846FFF73EFCAC
:102CA0001C4C01210D9194ED080A00208DED030AC2
:102CB000D4ED060A0922CDED020AF5EE000ACDE9AF
:102CC000081020EE200AF3EE060ACDE90A2080EE75
:102CD000201A9FED110AF0EE080A8DF8301021EE4F
:102CE000000A20EE200A8DED000A94ED0C0A8DED0D
:102CF000010AA16CCDE906108DF814000EA96846F2
:102D0000FEF75AFDDDE90E01C4E9150110B00020FF
:102D100010BD00002C0000200000003A70B5AAB0E1
:102D20000120FFF7A7FA012600248DF87C608DF8BA
:102D300080608DF87E608DF887408DF881608DF819
:102D40007D608DF885408DF882608DF888408DF823
:102D500086408DF87F608DF883401FA8FFF742F909
:102D600000941E2001940294CDE903404A4D8DF851
:102D7000184005948DF8196095ED170ADFED470AA4
:102D800030EE600ADFED460A80EE201ABCEEC10A82
:102D900010EE100A81B2ADF81C1095ED180ADFEDA7
:102DA000410A80EE201ABDEEC10A10EE100A00EBB7
:102DB000811080B2ADF81A00B0EB811F02D9401E1D
:102DC000ADF81A008DF8386008940C948DF83960CD
:102DD000E86C0990286D0A9095F8640001284AD0A3
:102DE000A86C0B9043F234000D906846FEF7DAFCB5
:102DF0001020109014200F90E86B1B9411901994E0
:102E00001A940320CDE914061794189495F84100FC
:102E1000139095F8400012908DF859408DF8584065
:102E20008DF85A601C941D940FA81E94FEF784F927
:102E300025942694279425A82894FFF73DFB01218B
:102E40001948FDF757FF00214FF48030FDF752FF7E
:102E50000020FFF782FA4FF00140FFF735FA24A96E
:102E600023A8FFF713FA04460020FFF703FA34B152
:102E700020462AB070BD43F234200B94B4E72E678D
:102E8000686868672399C5F88010249AAA67FFF7D5
:102E9000C7F90020EDE700002C00002000004843A7
:102EA000998809429988093F2000010070B58CB0CB
:102EB00002200190294C0120029094F841000490D6
:102EC00094F8400000260596039094ED060AD4ED90
:102ED000080A694601A880EE201A8DED081AFDF750
:102EE000D7FF00980F3000900120FFF7C3F90420AE
:102EF000FFF733FA01211A48FDF7FCFE4FF47A6020
:102F0000FFF7E2F901210802FDF7F4FE009820F036
:102F10004040FFF7D9F900211248FDF7EBFE0020F1
:102F2000FFF71BFAFEF740F90AA909A8FFF7AEF967
:102F300005460020FFF79EF915B128460CB070BD7C
:102F4000C4F88460F4E91D010844606109992162B4
:102F50000A9AA261FFF764F90020EFE72C00002035
:102F600080000100800101002DE9FC410025DFF80F
:102F7000948000954FF4807601242F4601953046C9
:102F800001F0F0FF38B1D8F80403204203D03046F6
:102F900001F0DEFF2543361D64007F1CB6B2082F0A
:102FA000EDD34FF4BE74204601F0DCFF48B120465B
:102FB00001F0CEFF45F000456A460221002001F0F5
:102FC0001FFF15F0FF0F16D0012600242E420ED051
:102FD00008EB8401D1F81005D1F81015C0F30520D5
:102FE000094AC1F3014152F8242002B1904776000A
:102FF000641C082CEAD3002D02DA684602F0A8FE11
:10300000BDE8FC81006000405411002002490248E4
:10301000091F096800680847F0000020F8B5124849
:10302000124E04464FF48C7102F0FBFA00281AD0BD
:103030000025C4F81851D4F818010090F07F3446E8
:10304000FF2806D0A17F11B101F0FCFE01E001F0E4
:1030500061FF65772572D4E9002101B004F1080011
:10306000BDE8F0401047F8BD00300040C01100201E
:1030700070B54FF080520124D2E94C10002308298A
:1030800006D1CD06C5F80C31C5F810315E4D2B6068
:10309000082955D15D4D2D685D4E35605B4D2D1D68
:1030A0002D68361D3560594D08352D68361D356043
:1030B000564D0C352D68361D3560544D10352D6834
:1030C000361D3560514D14352D68361D35604F4D18
:1030D00018352D684E4E203635604C4D1C352D6808
:1030E000361D3560494D20352D68361D3560474DFC
:1030F00024352D68361D3560444D28352D68361D24
:103100003560424D2C352D68361D35603F4D3035CC
:103110002D683F4E403635603C4D34352D68361DA8
:1031200035603A4D38352D68361D3560374D3C35A4
:103130002D68361D3560354D40352D68361D35609E
:10314000082904D1050002D1334E324D35600829DB
:1031500004D1050002D1314EFB253560082908D184
:10316000050006D192F858622D4A156866F30305EA
:103170001560082904D1020002D12A4D8A012A6073
:10318000082906D128480168C90702D06FF001015B
:1031900001602648016841F470010160BFF34F8F60
:1031A000BFF36F8F4FF01021D1F80002002803DB2E
:1031B000D1F80402002822DA1D4A14601D48046870
:1031C000002CFCD01224C1F800420568002DFCD070
:1031D000C1F8044201680029FCD01360016800298D
:1031E000FCD0BFF34F8F11487C380168124A01F4BC
:1031F000E06111430160BFF34F8F00BFFDE710494D
:103200000E48086070BD000038050040040400103E
:1032100020C50040488103008C56004018F500404E
:10322000E40E0040409602400004004088ED00E0BB
:1032300004E5014000E401400400FA050090D003D9
:103240006C0100200148006800470000E0000020F9
:103250000FB4054B10B503A9044A029800F09AFC7C
:1032600010BC5DF814FB00009D45000070010020BB
:103270001FB501208DF802008DF801008DF80500C2
:103280008DF800008DF808008DF8060000208DF8FC
:103290000B008DF80A008DF804008DF80C008DF8F5
:1032A00009008DF803008DF807006846FEF79AFEC6
:1032B0001FBD000070B5044600250420FEF7DAF8B3
:1032C0000E4E01213046FDF715FD0120FDF74AFFA6
:1032D00004210120FEF7DEF820B10120FEF7D6FE22
:1032E000054605E02168481CEFD0491E2160ECD15D
:1032F00000213046FDF7FEFC284670BD00010100AC
:1033000003B401984100009850EAC12018BF04207E
:103310004A0D18BF40F0010040F2FF72B2EB515F5E
:1033200008BF40F00200012808BF052002B0704726
:1033300070B59B482DED020B2DED068B079D25F0FA
:103340000044A04218DC9748844202DC0AD1069867
:1033500040B19DED060BBDEC068B02B0BDE87040A0
:1033600000F00BBB002DCCBF9FED8F0B9FED900BA2
:10337000BDEC068B02B070BD8F48A04215DD8F48B2
:10338000A042D8BF4FF0FF3458DD9DED060B51EC45
:10339000100BFFF7B5FF042808BF00F005FB9DEDFB
:1033A000060BBDEC068B02B070BD9DED060B51EC1B
:1033B000100B01F0E7F8CDE9060181489FED828B03
:1033C000A0423CDD8248A0421FDD00249FED82AB7D
:1033D0009DED060B53EC1A2B51EC100BFDF70FF87B
:1033E0009DED060B41EC190B53EC1A2B51EC100B15
:1033F000FDF7ACF853EC182BFDF7A2F853EC192BA2
:10340000FDF716F9CDE9060149E09DED060B012413
:1034100053EC182B51EC100BFCF7F1FF9DED060B54
:1034200041EC190B53EC182B51EC100BFDF788F8FD
:1034300053EC192BFDF7FCF8CDE906012FE06848A5
:10344000A0421FDD02249FED689B9DED060B53EC0F
:10345000192B51EC100BFDF779F853EC182BFCF7F6
:10346000CEFF9DED060B41EC180B53EC192B51ECE4
:10347000100BFDF765F853EC182BFDF7D9F8CDE9E3
:1034800006010CE09DED060B032453EC102B9FED81
:10349000580B51EC100BFDF7CBF8CDE906019DED73
:1034A000060B53EC102B51EC100BFDF74FF841ECD1
:1034B000180B53EC182BFDF749F841EC190B4E484B
:1034C0000621B0EE490AF0EE690A784400F0D9F915
:1034D00053EC182B51EC100BFDF738F841EC180B9E
:1034E0004648B0EE490AF0EE690A0521784400F03A
:1034F000C8F953EC192B51EC100BFDF727F841ECF0
:10350000100B51EC180B53EC102B002C0EDAFCF7BF
:1035100076FF9DED061B53EC112BFDF717F89DED83
:10352000061B53EC112BFDF70EF835E0FCF767FF97
:103530009DED061B53EC112BFDF708F841EC100B29
:103540002F48784400EBC40090ED001B51EC100BA9
:1035500053EC112BFCF7F4FF9DED061B53EC112BE4
:10356000FCF7EEFF41EC100B2648784400EBC4005A
:1035700090ED001B51EC100B53EC112BFCF7E3FF0B
:1035800041EC100B002DA2BFBDEC068B02B070BD4C
:1035900051EC100B81F0004141EC100B01E70000F1
:1035A000000010440000F07F182D4454FB21F93F27
:1035B000182D4454FB21F9BF0000DC3F0000203EE1
:1035C0000000F33F00000000000000000000F03F9A
:1035D0000000E63F00000000000000000000004086
:1035E0000080034000000000000000000000F83FE1
:1035F000000000000000F0BF22340000D8330000BB
:10360000623300001A33000070B56F4E2DED040BCD
:103610002DED048B82B0DDF824C0DDE907235C4288
:103620002CF000411C4341EAD474069D22F0004076
:10363000B44205D86C422C4340EAD474B4420BD94E
:103640009DED081B9DED060B02B0BDEC048B04B094
:10365000BDE8704000F09BB9ACF14054A4F17F6428
:103660001C430BD0022404EAAC7444EAD274054330
:103670009FED578B9FED582B07D015E09DED060B66
:1036800051EC100B00F0E4FE42E0002C11BF012CC5
:103690009DED060B02B0BDEC048B04BF04B070BD01
:1036A000022C38D0032C3BD00B439FED4D1B9FEDDC
:1036B0004E0B0AD0B14218D1B04209D121F080415D
:1036C00020F08040099107900FE0002A15DA10E001
:1036D000474B7B44002C08BF93ED000B0DD0012C11
:1036E00010D0022C17D0032C1AD0B0421DD1002AC2
:1036F00003DAB0EE410AF0EE610A02B0BDEC048BD1
:1037000004B070BD93ED000B51EC100B81F0004143
:1037100041EC100BF1E7B0EE480AF0EE680AECE776
:10372000B0EE420AF0EE620AE7E7401A00159FED9C
:10373000329B3C28C8BF8DED000B17DCBCF1000F9D
:10374000BCBF10F13C0F8DED009B0FDB9DED080B16
:1037500053EC102B9DED060B51EC100BFCF768FFA2
:1037600000F010FF00F074FECDE90001B4B1012CAF
:1037700010D0022C9FED220B53EC102B9DED000B73
:1037800051EC100B19D0FCF7DBFE53EC182BFCF7B7
:10379000D7FEBDE7019880F0004001909DED000B41
:1037A00053EC192B51EC100BFDF738F904BF022034
:1037B00000F01AF99DED000B9FE7FCF7C1FE53ECFA
:1037C000182BFCF7C0FEA3E70000F07F000000000C
:1037D000182D4454FB210940182D4454FB2109C0E5
:1037E000182D4454FB21F9BF182D4454FB21F93FF7
:1037F0004A3200000000000000000000000000004D
:10380000075C143326A6A13C00B52DED048BB0EE69
:10381000409AF0EE609A83B051EC190BFDF795F8E1
:1038200041EC180B18EE100A18EE901A8DED008B73
:10383000002818BF0120084320F00040C0F17F603D
:1038400000F1E040C00F14D019EE101A19EE900AE2
:103850008DED009B002918BF0121084320F0004096
:10386000C0F17F6000F1E040C00F04BF012000F014
:10387000BBF8B0EE480A03B0F0EE680ABDEC048B6A
:1038800000BD70B504462DED028B4D1E00EBC5004A
:10389000B0EE408AF0EE608A90ED000B35F0060045
:1038A00017D053EC182B51EC100BFCF74FFE41ECEA
:1038B000100B6D1E04EBC50090ED001B51EC100BBE
:1038C00053EC112BFCF79BFD41EC100B35F006007F
:1038D000E7D1022D36D0042D1CD0062D1CBFBDEC27
:1038E000028B70BD53EC182B51EC100BFCF72EFE25
:1038F00094ED0A1B53EC112BFCF781FD53EC182BB4
:10390000FCF724FE94ED081B53EC112BFCF777FD1C
:1039100041EC100B53EC182B51EC100BFCF716FE7E
:1039200094ED061B53EC112BFCF769FD53EC182B9F
:10393000FCF70CFE94ED040B53EC102BFCF75FFD31
:1039400041EC100B53EC182B51EC100BFCF7FEFD67
:1039500094ED021B53EC112BFCF751FD53EC182B8B
:10396000FCF7F4FD94ED001B53EC112BFCF747FD25
:10397000BDEC028B41EC100B70BD10B553EC102B5D
:1039800051EC100BFCF73BFD41EC100B10BD10B5DA
:1039900053EC112B51EC100BFCF731FD41EC100BEB
:1039A00010BD0000000000009FED050B10B553ECAA
:1039B000102B51EC100BFCF7C9FD41EC100B10BDA6
:1039C000000000000000001002E008C8121F08C13B
:1039D000002AFAD170477047002001E001C1121F90
:1039E000002AFBD1704700000149086070470000C1
:1039F000740100202DE9FF5F82B00021DDE9043071
:103A0000020DDDF840B0034318D044F61050A2F286
:103A1000FF3242431514119801281FD0A5EB0B006B
:103A2000401C5FEA000A4FF000064E4FDFF8389165
:103A3000B046504615D5CAF1000413E01198012490
:103A40004AA3012801D16FEA0B010298119AC0E93B
:103A50000031C0E9024206B0BDE8F09FCBF10000A2
:103A6000DFE704460021404A491842EB0450CDE903
:103A7000001012E0E00707D032463B464046494678
:103A8000FCF764FD8046894632463B46104619469F
:103A9000FCF75CFD06460F466410002CEAD1DDE918
:103AA0000401DDE90023BAF1000F06DAFCF74EFD50
:103AB00042464B46FCF74AFD05E0FCF7B9FD42469D
:103AC0004B46FCF7B5FD04460E460022284BFCF79A
:103AD000BDFF03D84FF0FF30014607E00022254B21
:103AE00020463146FCF78BFCFCF780FF102409E0F0
:103AF000002C0ADB0A220023FCF712FC039B303265
:103B00001A55641E50EA0102F2D1641C039AC4F1F2
:103B100011031444119A012A03D0012208430DD144
:103B20000AE0084304D000204FF0110B119072E717
:103B3000A3EB0B056D1E0DE05B4504DD4FF00002AD
:103B400005F1010504E003DA4FF00002A5F10105DB
:103B5000002AECD002981199C0E90231C0E9004571
:103B600079E70000000014400000F03F3000000042
:103B70000000F0430000E03F30B5002406E00D5D9A
:103B8000854202D11C70012030BD641C9442F6DBDA
:103B9000002030BD2DE9FF4F95B09A468846064675
:103BA0000025EEE1252877D100242746F94A012196
:103BB000039400E0044316F8013F203B01FA03F0B0
:103BC0001042F7D130782A2811D06FF02F033078C7
:103BD000A0F13002092A16D8039A44F0020402EB3D
:103BE000820203EB42021044761C0390EFE758F880
:103BF000042B0392002A03DA504244F40054039049
:103C000044F00204761C30782E2816D116F8010FE5
:103C100044F004042A280DD06FF02F023078A0F170
:103C20003003092B09D807EB870302EB4303C718BE
:103C3000761CF3E758F8047B761C30786C280FD09C
:103C400006DC4C2817D068280DD06A2814D104E06F
:103C5000742810D07A280FD10DE044F400140AE043
:103C600044F4801401E044F440147278824202D19A
:103C700004F58014761C761C307866280BD013DC93
:103C8000582877D009DC002875D04528F6D046287A
:103C9000F4D047281AD193E118E0632835D064287E
:103CA00079D0652812D18BE1702873D008DC6728A1
:103CB000F1D069286FD06E280DD06F2806D1ACE006
:103CC00073282CD0752874D0782853D05246179971
:103CD00090476D1C54E1C4F30250022809D0032818
:103CE0000DD0D8F8001004280DD00D6008F104089C
:103CF00046E1D8F80010EA17C1E90052F6E7D8F813
:103D000000100D80F2E70D70F0E718F8041B8DF835
:103D1000001000208DF80100EB46012003E058F868
:103D200004BB4FF0FF3061074FF0000102D40DE0FB
:103D300009F101018946B9420FDA8145F8DB1BF828
:103D400009100029F4D108E009F1010189468142F6
:103D5000FADB1BF809100029F6D103985346A0EBB3
:103D6000090721463846179A00F080FA284400EBEC
:103D7000090507E044E008E10DE01BF8010B52469D
:103D800017999047B9F10109F7D2534621463846B1
:103D9000179AF2E039E00A21C4F302524FF0000B07
:103DA0000091022A06D058F8040BC117032A09D043
:103DB0000AE023E008F1070020F00702F2E8020120
:103DC000904605E000B2C117042A01D140B2C117E4
:103DD000002906DA0A460021404261EB02012D2249
:103DE00002E0220504D52B228DF80420012203E0F5
:103DF000E20701D02022F7E7914657E00A2100E0D0
:103E000010214FF0000B00910BE010214FF0000B40
:103E100044F004040827009103E008204FF0000B51
:103E20000090C4F30252022A05D058F8040B002176
:103E3000032A08D008E008F1070020F00702F2E8A2
:103E40000201904603E080B2042A00D1C0B24FF0D4
:103E5000000922072AD53278702A07D0DDF800C081
:103E60008CF0100C5CEA0B0C05D00EE040228DF8B3
:103E70000420012208E050EA010306D030238DF827
:103E800004308DF8052002229146009B83F0080340
:103E900053EA0B030AD150EA010201D1620705D5AA
:103EA00030228DF804204FF001097F1E3278582A05
:103EB00004D039A20C920CAA02920BE03BA2F9E7C3
:103EC0005B46009AFCF72CFA0C9B9B5C029A521EF4
:103ED0000292137050EA0102F2D1029804A9081A62
:103EE00000F1200B600702D524F4803400E00127A4
:103EF0005F4502DDA7EB0B0000E0002000EB0B01AB
:103F0000009003984944401A0390E00306D45346B6
:103F10002146179A039800F0A9F90544002706E006
:103F200001A85246C05D179990476D1C7F1C4F45F4
:103F3000F6DBE0030CD553462146179A039800F0B0
:103F400095F9054404E030205246179990476D1CBE
:103F50000099481E00900029F5DC08E002980299BB
:103F600052460078491C0291179990476D1CBBF18D
:103F70000001ABF1010BF1DC5BE100F065F90544F8
:103F8000761C307800287FF40DAE19B02846BDE8C5
:103F9000F08F0000092801003031323334353637D4
:103FA0003839616263646566000000003031323385
:103FB0003435363738394142434445460000000025
:103FC000600700D4062708F1070020F00700F0E89A
:103FD0000223804603F0004C5FEA0C0001D097A05A
:103FE00009E0200501D596A005E0E00701D095A0E5
:103FF00001E0AFF24C001390307823F000436528C5
:104000000CD006DC452809D046281DD047287FD192
:104010003BE0662818D067287AD136E00021112FBE
:1040200001DB112000E0781CCDE9000104A90CA8F7
:10403000FFF7E0FCDDE90D010C9A4FF0000B07F1F2
:104040000109109200914EE04FF000400097CDE939
:10405000011004A90CA8FFF7CDFCDDE90D020C9BB3
:104060000F994FF0000B91461093009211B9791CF3
:1040700000EB0109B7EB090003D4C0F1FF3B07F1E6
:104080000109A9EB0700019042E0012F00DA0127A6
:104090000021112F01DD112000E03846CDE900019B
:1040A00004A90CA8FFF7A6FCDDE90D010C9A00910C
:1040B0004FF0000BB946109221070FD4009A4A45E1
:1040C00003DA914601E0A9F10109B9F1010F05DD1B
:1040D000109AA9F10101515C3029F4D0B84202DAFA
:1040E00010F1040F03DA0121CDE9011010E00028DE
:1040F00003DC8344A9EB000102E0411C494500DDDB
:104100008946A0EB0B00401C01904FF0004002904C
:10411000200705D40198484502DB4FF0FF3001909D
:1041200000208DF84B0002980DF14B07B0F1004FC5
:1041300025D002200C902B200D90029800280CDA3C
:10414000404202902D200D9007E00A210298FCF7D2
:1041500030FB3031029007F8011D0C99481E0C907D
:104160000029F2DC02980028EFD1791E0D98087022
:10417000307800F0200040F0450007F8020D11A84B
:10418000C01BC01D02901398007800B1012000EB05
:104190000901019801EBE071029801440398401A6B
:1041A000401E0390E00306D453462146179A039815
:1041B00000F05CF805441398007818B1524617993E
:1041C00090476D1CE00323D553462146179A039868
:1041D00000F04CF805441BE0BBF1000F07DB009832
:1041E000584504DD1098179910F80B0001E0179955
:1041F00030205246904701980BF1010B401E05F10B
:104200000105019004D12E205246179990476D1C4C
:10421000B9F10001A9F10109DEDC05E017F8010B95
:104220005246179990476D1C0299481E029000292A
:10423000F4DC53462146179A03989EE62D000000B1
:104240002B000000200000002DE9F041044600256D
:104250001E461746880404D405E039462020B0479E
:104260006D1C641EF9D52846BDE8F0812DE9F041AA
:10427000044600251E469046C80301D5302700E0BD
:104280002027880404D505E041463846B0476D1C18
:10429000641EF9D52846BDE8F081000010B572B65D
:1042A00001F0E4F800F002FF0028FBD111481249A8
:1042B000401AC408012000EB044010A101F062F88C
:1042C00011480068C00700D000BE022000EB044087
:1042D0000EA101F057F8BFF34F8F0B48E438016887
:1042E0000E4A01F4E06111430160BFF34F8F00BF3C
:1042F000FDE70000606A0000206A0000466174610A
:104300006C206572726F7200F0ED00E05379737487
:10431000656D207265736574000000000400FA0585
:104320000EB500210091CDE901106A4644F201006A
:10433000FFF7B4FF0EBD00F003B800F009B80000AD
:1043400072B602480168491C01607047E80000200D
:1043500003490868401E086000D162B6704700003B
:10436000E800002070B5054608680C46411C04D0E2
:1043700000F0DAFD206800F016FD6068411C02D0F4
:10438000002100F0F4FC2968A069C1F82405607DD3
:10439000227D29681043C1F86C05D4E90012286811
:1043A000C0F81425C0F80C15207D012814D1A06890
:1043B000411C02D0002100F0DAFCE068411C04D06E
:1043C00000F0B2FDE06800F0EEFCD4E902122868CB
:1043D000C0F80825C0F8101570BD70B5054608680E
:1043E0000C46411C04D000F0A9FD206800F0E5FC5B
:1043F0006068411C02D0002100F0C2FC2968A0695D
:10440000C1F82405607D217D2A680843C2F86C0547
:10441000D4E900122868C0F80C15C0F81425207DD6
:10442000012814D1A068411C02D0002100F0A8FC92
:10443000E068411C04D000F081FDE06800F0BDFCA4
:10444000D4E902122868C0F80825C0F8101570BD1C
:1044500010B541EC100BFEF76BFF51EC100B10BDCB
:10446000094908B5085C0090684600F003FDD0F8E3
:104470000425009B0121994021EA0203C0F8083578
:104480001140C0F80C1508BD986700002DE9F047F1
:104490000546861C91460F464FF0010A0020FFF7A3
:1044A0004AFF1B4C04F21C4860683860D4E90101E3
:1044B000184F401A3968081A0EE00121404600F0F2
:1044C0002FFA00F027F90146404600F029FAD4E916
:1044D0000101401A3968081A401C8642EDD8B9F12A
:1044E000000F03D0052065F3891002E0062065F374
:1044F0009F5061683A68114004EB8101C8606068B0
:10450000304460600020FFF718FF5046BDE8F08798
:10451000341300201801002070B50D4604460A2906
:1045200002D10D21FFF7F8FFA0682268411CA160AD
:104530001554D4E90101814204D32046BDE87040FE
:1045400000F0BFBA70BD0000044881684068814235
:1045500001D1012070470020704700003413002073
:104560000249084490F930007047000054110020BF
:1045700010B50021024800F0DEF980F3100010BDF4
:104580005017002082B0CDE9000121F000400190D9
:104590009DED000B02B051EC100B704738B504468E
:1045A0008DF8000069460320ABBE204638BD0000F0
:1045B0002DE9FC5F0E008346DDE90C47C6F10000E3
:1045C00098469246814600D40846012503E000BF84
:1045D00090FBFAF06D1C5045FADAA84500D9454623
:1045E00024B1002E01DB780700D5641EB80702D580
:1045F000B8F1000F0AD0F80708D13CB1A54205D2A6
:1046000020215846641EFFF787FFF6E7002E02DAE6
:104610004E462D2102E0780703D52B215846FFF79F
:104620007BFF07F0030002280BD1B8F1000F08D17F
:104630003CB1A54205D230215846641EFFF76CFFFD
:10464000F6E7CDE90047434652463146584601F069
:104650005DFFBDE8FC9F000070B50D460446006894
:104660004FF4887100F0F8FF4FF49071206800F06B
:10467000F3FF4FF49271206800F0EEFF4FF4A27147
:10468000206800F0E9FF4FF4AC71206800F0E4FF0F
:1046900020681249C0F804132068690740F3073006
:1046A000090E002804DB00F1E02080F8001405E08A
:1046B00000F00F0000F1E02080F8141D206840F3A6
:1046C0000730002809DB00F01F020121914040095A
:1046D000800000F1E020C0F8001170BD100342001E
:1046E000024600201268530713D502F00300012888
:1046F00002D002280CD105E0C2F383100B68801CA5
:10470000184404E00223086803EB92521044086046
:10471000012070472DE9FF410026244800F0FDF8F4
:104720002248001F074600F0F8F8214C2149A068F4
:1047300000900D6800E000986946284004EB800076
:104740000C30FFF7CDFF0028F5D101AA009901EA4E
:10475000050304EB8303491CDB6842F82030401C4E
:1047600000910228F2D3019800F0030001280BD039
:10477000022810D10198032101EB90500099BDF857
:104780000A6001EB900005E00198BDF80A60C0F3F3
:10479000831008440090384600F0BCF808B1009837
:1047A000A06004B03046BDE8F08100004C17002046
:1047B00034130020180100201FB50020FDF714FB62
:1047C000FDF734FB1D481E49401AC008032101EBC8
:1047D00000401CA100F0D6FD204C4FF0000800BFA7
:1047E000C4F80880A4F80C8084F80E8084F8008057
:1047F0001A490722491CCB1D15468DE82E00184882
:104800000022694601F016F818B1FFF789FD00E0B3
:1048100020BF20780028FBD000F048FC0028FBD106
:10482000FFF71EFE0E4DC8260C3D4FF47A47691C5B
:1048300038468847761EFAD1D2E70000606A000049
:10484000206A0000535049206578616D706C6520C6
:10485000737461727465642E0000000018000020FB
:104860008C6700002DE9F047C5881E1DB6FBF5F7E3
:104870008946B6FBF5F1044605FB176C40791668CE
:104880006843DDF820A0F718001F874200D9C61A38
:10489000166001E02468491E0029FBD1A5EB0C0736
:1048A0008846B74216D818E004EB0C00001D09EB4F
:1048B0000803BAF1000F3A4602D00146184600E05C
:1048C0001946FBF771FD2468F61B4FF0000CB84445
:1048D000B54201D9374600E02F46002EE4D1BDE8AD
:1048E000F087000030B5024651B100F0A7FD00216D
:1048F000074C08E034F821301568AB4202D1116052
:10490000002030BD491C8142F4D3052030BD000099
:1049100000000000002100F009B8012100F010B8EB
:1049200008B56A46FBF7ABFC009808BD08B56A46B7
:10493000FBF78BFC08BD08B56A46FBF76DFC08BDAC
:1049400008B56A46FBF774FC009808BD08B56A46CE
:10495000FBF7A2FC009808BD70B504460025284668
:10496000FFF7E9FC21686268086890420ED9401E92
:1049700008600178238AE26801FB0325227A216816
:10498000101AC0B20A79824200D208710020FFF7E3
:10499000D4FC284670BD70B505460C460020FFF7D4
:1049A000CAFCE868298A201AB0FBF1F12A6810686D
:1049B000431C13600170BDE870400020FFF7BDBCD0
:1049C000C20800F007030120895C98400840704746
:1049D0002DE9FF411C460378164D174E45F823205C
:1049E000103545F82340F0CE8DE8F0000C788DF8B6
:1049F00000404C788DF801408C788DF80240CC78DE
:104A00008DF803400C798DF805404C798DF80640FF
:104A10008C6802940C7B8DF80C40497B8DF80D104E
:104A200002B1064A6946001D00F04EFE04B0BDE822
:104A3000F081000034110020A06700003560000004
:104A4000F0B505460478154889B0164640F824208C
:104A5000124A08690832A2F10C0742F82400487F84
:104A6000385520226846FBF79FFC04942878385C70
:104A700048B10EB10A4A00E000226946281D01F043
:104A800049F809B0F0BD0EB1064A00E000226946BF
:104A900005F10C0000F008FFF3E70000D000002053
:104AA000C9630000116200000FB408B50399002922
:104AB00004D004AA00926A4600F00FF801B05DF835
:104AC00014FB10B582680446002A05D0D4E904031B
:104AD000216898470020A06010BD2DE9FC47914651
:104AE0000C00804676D014F8011B39B125290ED070
:104AF0004046FFF711FD20780028F4D198F80C000B
:104B0000002867D04046BDE8FC47FFF7DABF002029
:104B1000012221782B291BD02D2902D0302908D140
:104B200002E040F0010001E040F00200641C002AB5
:104B3000EFD100252A290ED02178A1F130020A2ACE
:104B400011D205EB850201EB4205641C303DF1E713
:104B500040F00400EAE7D9F800100B1DC9F8003056
:104B60000968641C0D44217800232E290BD114F808
:104B7000011FA1F130020A2A05D203EB830201EBE7
:104B80004203303BF3E76C290DD068290BD069292B
:104B900021D00BDC252918D0582931D063290ED01B
:104BA000642915D117E014F8011FECE7702969D0CA
:104BB000732932D075291BD0782909D120E0D9F882
:104BC0000000011DC9F8001001784046FFF7A4FC61
:104BD000641C90E76CE0D9F800100A1DC9F80020A9
:104BE0000968CDE900500A224046FFF7E1FCEFE7F3
:104BF000D9F800100A1DC9F8002009680A2206E049
:104C0000D9F800100A1DC9F8002009681022CDE962
:104C10000050404601F07AFCDAE7D9F8001000278E
:104C20000A1DC9F800200E68C00705D112E04046F1
:104C3000761C7F1CFFF770FC31780029F7D104E067
:104C4000202140466D1EFFF767FCBD42C0D9002DF4
:104C5000F6D1BDE74EB13046FBF7CAFB074604E08C
:104C6000202140466D1EFFF757FCBD4206D9002D9E
:104C7000F6D103E04046761CFFF74EFC3178002960
:104C8000F8D1A5E7D9F80000011DC9F800100568A2
:104C900030214046FFF740FC78214046FFF73CFCBE
:104CA00008200021CDE90001034610222946B0E783
:104CB000BDE8FC872DE9FF411C46DDE90A78154671
:104CC0000E46684600F0F2F846EA450141EA8401E2
:104CD00041EA072242EA0841009A00EB8200C0F84C
:104CE0000017BDE8FF812DE9FF411C46DDE90A7888
:104CF00015460E46684600F0E7F846EA450141EAE7
:104D0000840141EA072242EA0841009A00EB82004E
:104D1000C0F80017BDE8FF812DE9FF411C46DDE921
:104D20000A7815460E46684600F0DCF846EA45016A
:104D300041EA840141EA072242EA0841009A00EB75
:104D40008200C0F80017BDE8FF811CB5002100916A
:104D50000B4601220191FFF7C6FF1CBD1CB50021C7
:104D600000910B4601220191FFF7D6FF1CBD1CB537
:104D700000220B46009211460192FFF7B4FF1CBDC2
:104D80001CB500220B46009211460192FFF7C4FFAA
:104D90001CBD1CB5002100910B460122019111465A
:104DA000FFF788FF1CBD1CB5002100910B460122B6
:104DB00001911146FFF797FF1CBD1CB50021009122
:104DC0000B46012201911146FFF7A6FF1CBD13B54A
:104DD0000C46684600F05CF8009900EB8101D1F8C0
:104DE000002722F44032C1F80027009900EB81002F
:104DF000D0F8001741EA0441C0F800171CBD0000BC
:104E00003CB50A4CD4E90034CDE900346B46441873
:104E100008E000BF53F82010D1F8205520C2C1F897
:104E20002055401C8442F5D83CBD0000B06700000E
:104E300001B5684600F010F8009A01219140C0F8D1
:104E40000C1508BD01B5684600F030F8009A012144
:104E50009140C0F80C1508BD0168202902D24FF01E
:104E6000A040704701F01F01016001487047000039
:104E7000000300500168202902D24FF0A040704783
:104E800001F01F010160014870470000000300505D
:104E90000168202902D24FF0A040704701F01F01A5
:104EA000016001487047000000030050016820299C
:104EB00002D24FF0A040704701F01F01016001488D
:104EC00070470000000300500168202902D24FF013
:104ED000A040704701F01F010160014870470000C9
:104EE000000300500168202902D24FF0A040704713
:104EF00001F01F01016001487047000000030050ED
:104F000001B56846FFF7A8FF009A01219140C0F85B
:104F1000081508BD01B56846FFF7C8FF009A0121D2
:104F20009140C0F8081508BD01B56846FFF7CCFFF1
:104F3000009A01219140C0F8081508BD01B56846E6
:104F4000FFF7D0FF009A01219140C0F8081508BD75
:104F5000034908B50844002101600068009008BDBD
:104F60000060004002494058012800D000207047EE
:104F700000600040F0B595B01C4615460E46084648
:104F80001A9F00F02BFB182109A8FBF726FA0E97B1
:104F9000CDE909540023082203A9304600F031FB73
:104FA00005980690BDF81000ADF81C00BDF8120081
:104FB000ADF81E0000208DF821000399082501F0AE
:104FC0000300012802D0022816D02FE0C1F3C2004E
:104FD000C1F383178C0A8DF82000BA002B460FA965
:104FE000304600F00EFB09A8009006AB3A460FA928
:104FF000204600F04FFA19E0C1F3C2008C0D8DF885
:105000002000082C01D2274600E008272B463A460C
:105010000FA9304600F0F5FA3D44E41B09AB06AA9F
:1050200039460FA800F0B2F9002CEAD1304600F062
:10503000D9FA15B0F0BD7047084810B50178084A94
:10504000515C19B1001D00F0FFFD02E00C3000F0D2
:10505000F9FCBDE81040002001F0F8B8FC00002089
:10506000CC00002008B5034A00924023024AFFF713
:1050700081FF08BD7D5F0000341200200A4A01292B
:1050800002EBC00007D0022907D0032907D004296A
:1050900007D0002070470220704704207047007935
:1050A0007047407970470000206A00002DE9FF47F3
:1050B000FFF74AFA18B1002004B0BDE8F0877D4C34
:1050C0000020C4F81804BFF34F8F7B49A0680090FC
:1050D0000D684FF00008284004EB80000CE000BF92
:1050E000D4F8180470B961680098814201D8A160B1
:1050F000E1E7284004EB80000C306946FFF7F0FA46
:105100000028EDD1002001AA009901EA050304EB73
:105110008303491CDB6842F82030401C00910228C0
:10512000F2D3019800F00301022902D001294DD0E9
:10513000A5E0810D50228946B2EB905F00D8502146
:105140000E4666F39F50019008315C4800F0FDF96F
:10515000070077D000F042FA4346082201A93846FA
:1051600000F057FA009908F1080A2940681A8000EF
:10517000001D864223D94F4D0C3530B1C2B204EB2D
:105180008101301A90460C3104E02946F2B2002524
:1051900090462846C6B25346384600F03AFA0AEB23
:1051A00008032DB1324629464FEA070000F031FAD4
:1051B000009909F1030001EB9000009039E004EB45
:1051C00081015346324638460C31EFE7C0F3831174
:1051D000062900D3062161F389100190C0F38310E2
:1051E000801C8100354800F0B0F9070047D000F07E
:1051F000F5F94346082201A9384600F00AFA08F1F9
:10520000080800260FE00098434600EA0501401C0C
:1052100004EB81010090042238460C3100F0F9F9CA
:1052200008F10408761C0198C0F38310B042EAD854
:1052300047B1D4F81054D4F8180478B1384600F0C7
:10524000D1F931E01BE0E8684079012804D12A68EF
:105250002846394612689047E8680568002DF2D163
:10526000384600F0BFF90020FFF765F8D4F81804BD
:1052700008B90098A0600020FFF75FF814E0D4F8A8
:10528000104405E02168204689688847E068046882
:10529000002CF7D10A480B49401AC008022101EB43
:1052A000004009A100F06EF8FFF74EF980F0010010
:1052B00002E700003413002018010020686A000093
:1052C000606A0000206A00004261636B656E64736F
:1052D00020666C7573686564000000002DE9F84F66
:1052E0008146264FD01C15468A4680080022694612
:1052F0003E68FFF7CBF8DFF88880B0B3009CA01CB5
:10530000009039683040091A8F003F1DBD4208EBFC
:10531000800002D82A46514608E03A4651460C30F1
:10532000FBF742F81648EA1B0AEB07010C30FBF7C3
:105330003BF84FEA1947FFF71BF947EA0042601CA8
:10534000304008EB8000344008EB8401C260C8683C
:105350004FF6C07269F3C500904365F39F5020F08B
:105360000300801C20F00400C86098F8000001E0F1
:10537000FFF79CFE0028FBD1BDE8F88F1801002044
:105380003413002000231A4600F0CEBE2DE9F0476A
:105390000E4680461C469246082940D894F80C9048
:1053A000002020731946104600F060FD0025B5422C
:1053B00006D218F805201BA12046FFF775FB03E075
:1053C0001AA12046FFF770FB6D1C082DEFD318A122
:1053D0002046FFF769FB0025B54212D218F8057088
:1053E0007E2F08D8FAF7DCFF0068C05D10F03E0F92
:1053F00001D03A4600E02E220EA12046FFF754FBD2
:1054000003E00DA12046FFF74FFB6D1C082DE3D3F1
:1054100001222146504600F00BFD84F80C90BDE8B7
:10542000F087000020253032780000002020200086
:105430007C000000256300002000000002480349B2
:10544000401AC00870470000686A0000206A000027
:1054500013B56846FFF746FA08B100201CBD0248A4
:10546000009950F831001CBD206A000070B5084852
:105470000125D0F81044057007E0E0684571216807
:10548000204649688847E0680468002CF5D170BD63
:10549000341300202DE9FF4781460C9D00200C4667
:1054A0002F7B2873984616462946184600F0DEFCE6
:1054B000072E42D2DFE806F004090F161F2A360035
:1054C00049462846FFF7F0FA37E049462846226861
:1054D000FFF7EAFA31E0D4E9002349462846FFF70E
:1054E000E3FA2AE0A0680090D4E900234946284660
:1054F000FFF7DAFA21E0D4E90201CDE90001D4E9AD
:10550000002349462846FFF7CFFA16E004F10800C9
:1055100007C88DE80700D4E9002349462846FFF76D
:10552000C3FA0AE004F108000FC88DE80F00D4E9BF
:10553000002349462846FFF7B7FA0022294640468D
:1055400000F076FC2F73BDE8FF872DE9F041058A56
:1055500080462D1F4819C01CB0FBF5F0C6B240466E
:10556000FFF7FAF9041E19D00020207101206071A4
:10557000E58000272546761EC4F800800BE04046F3
:10558000FFF7EAF960B16179491C6171286005464D
:105590007F1CC0F80080B742F1D32046BDE8F081FF
:1055A000204600F002F80020F8E72DE9F0414579A7
:1055B00001466B1E002201E00968521C9A42FBD38F
:1055C0000F680146002605E038460C68FFF7E3F94E
:1055D0002146761CAE42F7D3BDE8F0810121001DC3
:1055E000FFF79EB910B504460121001DFFF7AEF983
:1055F00010F0FF0F04D12046BDE81040FFF7D5BFE3
:1056000010BD1CB501920122009201AAFFF72AF9F0
:105610001CBD1CB501920022009201AAFFF722F9DD
:105620001CBD4058002800D0012070474058002879
:1056300000D00120704708B5002242504058009029
:1056400008BDD0F80403084000D00120704740583E
:10565000002800D00120704708B500224250405871
:10566000009008BD0121B1EB507F01D101207047AE
:10567000002070470121B1EB507F01D1012070471C
:105680000020704770B50D4600F03CFC04000FD0C0
:105690000020FEF750FE207920B10020FEF74DFEDD
:1056A000112070BD0120256020710020FEF745FE0D
:1056B000002070BD10B500F025FC002802D00021AC
:1056C0000160017110BD00002DE9FC470C46154634
:1056D00001798046554A01EBC10002EB80069946EC
:1056E000307F10B10820BDE8FC87514AD8F800008F
:1056F000074652F82110FFF7C5FF08B11120F2E765
:10570000C6E90059207B0128207802D8FFF79AFBD0
:1057100001E0FFF7FFFB4FF0000ACDF800A0CDF845
:1057200004A02078534652460121FFF7C3FA60785F
:105730004FF0FF35FF2806D08146FFF783FB484630
:10574000FFF727FB00E0A946A078FF2809D0002238
:1057500005460123CDF800A01146CDF804A0FFF7BF
:10576000A9FAA07886F82000E078F077E078FF28A2
:105770000BD0217911B1FFF765FB01E0FFF7CAFB00
:10578000E078FFF706FB2079B0772178C7F8081595
:10579000C7F80C95C7F81055A068C7F82405217BF9
:1057A000607B00B10120012904D0022905D0032922
:1057B00008D105E040F0020004E040F0040001E000
:1057C00040F00600C7F85405A079C7F8C0050720C7
:1057D000C7F800053068012218B3D8F800006179D5
:1057E00040F3073000284FEA411104DB00F1E020CC
:1057F00080F8001405E000F00F0000F1E02080F8D0
:10580000141DD8F8000040F30730002809DB00F031
:105810001F0102FA01F14009800000F1E020C0F808
:105820000011504686F81DA032775CE7C0110020B9
:10583000B86700002DE9F04105460F46007915498B
:1058400000EBC00001EB80041646607F10B1112010
:10585000BDE8F081206820B116F0140F01D10120BD
:10586000607797E80F0004F10C0888E80F00E07FEC
:10587000FF2806D0A17F11B1FFF74CFB01E0FFF735
:10588000E1FA33463A4621462868BDE8F04100F087
:10589000EDBB0000C01100200149024800F0FEBC31
:1058A000E4110020002000402DE9F0410546007978
:1058B00016460F4600EB40012D4A01EBC00102EBFA
:1058C000810494F82A1011B10820BDE8F08129491B
:1058D00051F820102868FFF7D5FE08B11120F4E731
:1058E00039462846FEF73EFD666038692060300084
:1058F0004FF001062FD03F7F4FF48E712868FFF7DD
:105900009AFE4FF4A2712868FFF795FE28681A499D
:10591000C0F8041328684FEA471140F30730002805
:1059200004DB00F1E02080F8001405E000F00F0037
:1059300000F1E02080F8141D286840F307300028AB
:1059400009DB00F01F0106FA01F14009800000F1B7
:10595000E020C0F8001128680421C0F800150020DC
:10596000A061E06184F8290044F8140FA675ACE743
:10597000E4110020BC670000800002002DE9F05F08
:10598000054600790B4600EB400101EBC0002449BD
:1059900001EB8004284600F045F810B11120BDE865
:1059A000F09F62614FF00009C4F82090A36084F872
:1059B00028904FF48E784E4641462868FFF73BFE0C
:1059C00028684FF0010AC0F808A02146286800F0B6
:1059D000F5FB606808BBD5F800B067690FE000BF51
:1059E00094F8280008B10F2615E041465846FFF705
:1059F0001DFE0028F4D02146584600F0DFFB206A47
:105A0000B842F2D3574641462868FFF70FFE0028F8
:105A1000F9D02868C760C4F814903046BFE700008A
:105A2000E4110020007900EB400101EBC0000449C3
:105A300001EB80004069002800D001207047000081
:105A4000E41100202DE9F047044600794FF00009E9
:105A500000EB400101EBC000284901EB8007206802
:105A6000C0F800957868B0B120682549C0F80813DF
:105A7000206840F3073000280DDB00F01F020121F1
:105A800091404009800000F1E020C0F88011BFF390
:105A90004F8FBFF36F8F2068D0F80C25D0F8148596
:105AA000D0F80865D0F810554FF0FF31C0F8141544
:105AB000C0F80C152068C0F80815C0F81015501C67
:105AC00002D01046FFF741F9B8F1FF3F02D040463F
:105AD000FFF73BF9681C02D02846FFF736F9701C27
