:020000040000FA
:1000000020270020FD020000050300000703000078
:10001000090300000B0300000D03000000000000B6
:100020000000000000000000000000000F030000BE
:10003000110300000000000013030000150300007E
:1000400017030000170300006D0C0000450A0000B4
:1000500017030000170300009109000017030000B8
:100060001703000017030000170300001703000028
:100070001703000017030000170300001703000018
:1000800017030000350A00001703000017030000E3
:1000900017030000170300001703000017030000F8
:1000A00017030000170300001703000017030000E8
:1000B000170300001703000000000000000000000C
:1000C00017030000170300001703000017030000C8
:1000D00017030000170300001703000017030000B8
:1000E00017030000170300001703000000000000C2
:1000F00000000000170300000000000017030000CC
:1001000000000000000000000000000000000000EF
:1001100000000000000000000000000000000000DF
:1001200000000000000000000000000000000000CF
:1001300000000000000000000000000000000000BF
:1001400000000000000000000000000000000000AF
:10015000000000000000000000000000000000009F
:10016000000000000000000000000000000000008F
:10017000000000000000000000000000000000007F
:10018000000000000000000000000000000000006F
:10019000000000000000000000000000000000005F
:1001A000000000000000000000000000000000004F
:1001B000000000000000000000000000000000003F
:1001C000000000000000000000000000000000002F
:1001D000000000000000000000000000000000001F
:1001E000000000000000000000000000000000000F
:1001F00000000000000000000000000000000000FF
:10020000DFF810D000F01EF9004800470516000086
:10021000AFF300802027002030B4044654E8000FDC
:100220000D4644E80053002BF8D1156030BC7047F0
:1002300030B4044654E8000F40EA010544E8005396
:10024000002BF7D1156030BC704730B4044654E839
:10025000000F00EA010544E80053002BF7D11560B8
:1002600030BC704730B4044654E8000F80EA010502
:1002700044E80053002BF7D1156030BC704730B410
:10028000044654E8000F00EB010544E80053002B3E
:10029000F7D1156030BC704730B4044654E8000F05
:1002A000A0EB010544E80053002BF7D1156030BCEA
:1002B000704770B404464FF0000054E8006F0D68BA
:1002C000AE4207BF44E80023012044E800630E600B
:1002D000002B1CBF0020F0E770BC704730B4044610
:1002E00054E8000F88422CBF451A054644E80053E5
:1002F000002BF5D1156030BC7047000006488047E0
:1003000006480047FEE7FEE7FEE7FEE7FEE7FEE7FA
:10031000FEE7FEE7FEE7FEE7990A000001020000A3
:100320002DE9F05F0546002092469B46884606462A
:10033000814640241BE0284641464746224600F0BD
:1003400070F853465A46C01A914110D311461846C8
:10035000224600F016F82D1A67EB01084F46224698
:100360000120002100F00DF817EB00094E41201E7E
:10037000A4F10104DFDC484631462A464346BDE885
:10038000F09F202A04DB203A00FA02F10020704797
:100390009140C2F1200320FA03F3194390407047C3
:1003A00000487047943600000649074A08685043E1
:1003B00043F2390210440860400870470149086060
:1003C00070470000D80000206D4EC64140EA01038E
:1003D0009B0703D009E008C9121F08C0042AFAD2FB
:1003E00003E011F8013B00F8013B521EF9D27047BF
:1003F000D2B201E000F8012B491EFBD27047002267
:10040000F6E710B513460A4604461946FFF7F0FF13
:10041000204610BD421C10F8011B0029FBD1801A98
:100420007047202A04DB203A21FA02F000217047AD
:1004300021FA02F3D040C2F120029140084319464C
:1004400070470000064C074D06E0E06840F00103ED
:1004500094E8070098471034AC42F6D3FFF7D4FE77
:10046000603700008037000002494FF48060086068
:10047000704700000C05005002494FF4806008608E
:10048000704700000805005010B5040012D00E4956
:1004900004EB8400B1EB400F0DD904EB8410810014
:1004A0004FF0E0204161052101610169C903FCD5DC
:1004B0000021016110BD6008FFF7E6FF04F00100B4
:1004C00000EB5400E1E700009DD8090010B500F0F2
:1004D0008DF9C820FFF7D8FF00F08EF9BDE8104075
:1004E0004FF4FA70FFF7D0BF70B59CB07022174977
:1004F0006846FFF76BFF16480024C46044618461BE
:100500000470FFF7B9FF00254FEA0D0606EBC500A2
:10051000416836F8350000F00DFA6D1C0E2DF5D34C
:1005200040F2044000F0F8F845F201530122094975
:10053000984209D0A0F5AA43023B05D0B0F5AA4FD6
:1005400000D10C701CB070BD0A70FBE73C34000099
:10055000E0000020200000201FB50E4B0FCB8DE8DF
:100560000F0014208DF8030016208DF802001520CE
:100570008DF8010017208DF8000006480023064A78
:100580006946103801F04AF908B100F003FE04B0E2
:10059000002010BDD8330000C52D0000FFF796FFE6
:1005A000FFF7A2FF4FF4806000F0B6F80446014662
:1005B00020A000F061FBA4F58240443801D026A0C1
:1005C00000E02CA000F058FB41F23420FFF7F6FECB
:1005D0002F4C42F20F7542F230264FF47A7700BF6B
:1005E000FFF7E2FE00046060FFF7DEFE81B26068A4
:1005F000014361602068401C2060304600F09AF999
:10060000304600F089F86168884202D021A000F0ED
:1006100033FB2168B1FBF7F007FB101018B927A0D6
:10062000626800F029FB6D1EDAD233A000F024FBD3
:10063000FEE700005265616420414449494420724C
:10064000656769737465722C20676F743A2030781F
:100650002530346C780A0000526561642072656749
:1006600069737465722074657374206661696C6562
:10067000642E0A005265616420726567697374654F
:1006800072207465737420706173730A0000000037
:100690001800002057726974652072656769737469
:1006A00065722074657374206661696C65642040AE
:1006B00030782530386C780A00000000526561649B
:1006C0002F577269746520686173206265656E20BA
:1006D000646F6E6520256C642074696D65732C20D1
:1006E0006C61746573742064617461206973203077
:1006F000782530386C780A0053504920726561645F
:100700002F7772697465207465737420636F6D70E0
:100710006C6574656400000038B50E4D29780129B8
:1007200003D0BDE8384000F0DFB80446694600F069
:100730007FF840B1204600F0D7F805460146204634
:1007400000F08EF804E02869009950F82100050AAD
:10075000284638BDE00000201CB5010A8DF80010C5
:100760008DF80100022201A9684600F02DF8BDF8BD
:10077000040040BA1CBD1CB5010E8DF80010010C20
:100780008DF80110010A8DF802108DF80300042283
:1007900001A9684600F018F8BDF804009DF806109D
:1007A00040BA000440EA01209DF8071008431CBD30
:1007B0001CB501228DF8000001A9684600F004F87C
:1007C0009DF804001CBD00001FB507490722CB1D82
:1007D00014468DE81E0003480022694601F02EFFF2
:1007E0001FBD0000CC33000008000020014940205C
:1007F000086070470C0800500149402008607047AD
:1008000008080050094910B54B69CA684C68134480
:100810009C4206D98B6843F82200C868401CC86017
:1008200010BD6FF00300886110BD0000E0000020E3
:1008300030B50A4AC0F387040020D2E9043207E049
:1008400013F82050A54202D10860002030BD401CA2
:100850008242F5D86FF0060030BD0000E0000020B5
:100860000C4A10B5D4685369234454689C420DD98E
:10087000136980081B1F136118701069036861F306
:100880001F2303605069401C506110BD6FF00300CE
:10089000906110BDE0000020F8B5124F0C460646EE
:1008A000B0F5085F03D36FF00400B861F8BD694686
:1008B000FFF7BEFFC6F3860558B121463046FFF765
:1008C000CFFF00BF65F31F6444F00040FFF79AFFBD
:1008D000F8BD3869009950F8212064F31F2240F8D0
:1008E0002120EFE7E000002010B50446FFF7BCFD33
:1008F0002020FFF75DFF2046FFF72EFFFFF7BCFD2E
:10090000FFF7B2FD6D20FFF753FF0020FFF750FF08
:1009100042F21400A4F5805484424FF0000002D843
:10092000FFF729FF01E0FFF717FF0446FFF7A4FDDB
:10093000204610BD70B5154A1278012A1AD0054616
:100940000C46FFF791FD2020FFF732FF2846FFF706
:1009500003FFFFF791FDFFF787FD2D20FFF728FF2D
:1009600042F21400A5F58055854207D82046FFF7CE
:1009700002FF06E0BDE87040FFF78EBFA0B2FFF7B0
:10098000EBFEBDE87040FFF777BD0000E0000020FF
:100990002DE9FC410025DFF8948000954FF4807626
:1009A00001242F460195304601F0E0F938B1D8F81E
:1009B0000403204203D0304601F0CEF92543361D12
:1009C00064007F1CB6B2082FEDD34FF4BE742046EE
:1009D00001F0CCF948B1204601F0BEF945F00045E0
:1009E0006A460221002001F031F915F0FF0F16D000
:1009F000012600242E420ED008EB8401D1F8100508
:100A0000D1F81015C0F30520094AC1F3014152F88D
:100A1000242002B190477600641C082CEAD3002DF4
:100A200002DA684602F098F8BDE8FC8100600040F8
:100A30001C01002002490248091F09680068084794
:100A400058000020F8B51248124E04464FF48C713D
:100A500001F0EBFC00281AD00025C4F81851D4F896
:100A600018010090F07F3446FF2806D0A17F11B115
:100A700001F004F901E001F051F965772572D4E93C
:100A8000002101B004F10800BDE8F0401047F8BDB6
:100A9000003000408801002070B54FF080520124E2
:100AA000D2E94C100023082906D1CD06C5F80C3137
:100AB000C5F810315E4D2B60082955D15D4D2D686C
:100AC0005D4E35605B4D2D1D2D68361D3560594DD1
:100AD00008352D68361D3560564D0C352D68361D90
:100AE0003560544D10352D68361D3560514D143527
:100AF0002D68361D35604F4D18352D684E4E203609
:100B000035604C4D1C352D68361D3560494D2035FE
:100B10002D68361D3560474D24352D68361D3560EE
:100B2000444D28352D68361D3560424D2C352D68D5
:100B3000361D35603F4D30352D683F4E40363560AF
:100B40003C4D34352D68361D35603A4D38352D68AD
:100B5000361D3560374D3C352D68361D3560354DB9
:100B600040352D68361D3560082904D1050002D1B5
:100B7000334E324D3560082904D1050002D1314E83
:100B8000FB253560082908D1050006D192F8586286
:100B90002D4A156866F303051560082904D1020083
:100BA00002D12A4D8A012A60082906D12848016805
:100BB000C90702D06FF0010101602648016841F4C5
:100BC00070010160BFF34F8FBFF36F8F4FF01021A3
:100BD000D1F80002002803DBD1F80402002822DA51
:100BE0001D4A14601D480468002CFCD01224C1F872
:100BF00000420568002DFCD0C1F8044201680029BC
:100C0000FCD0136001680029FCD0BFF34F8F11485E
:100C10007C380168124A01F4E06111430160BFF3BE
:100C20004F8F00BFFDE710490E48086070BD0000FF
:100C3000380500400404001020C50040488103002E
:100C40008C56004018F50040E40E004040960240EB
:100C50000004004088ED00E004E5014000E40140AC
:100C60000400FA050090D003D40000200148006879
:100C700000470000480000200FB4054B10B503A941
:100C8000044A029800F018F810BC5DF814FB00004C
:100C9000E9130000DC00002002E008C8121F08C1B0
:100CA000002AFAD170477047002001E001C1121FED
:100CB000002AFBD1704700002DE9FF4F8DB00F4691
:100CC0000546002606E025280BD0DDE90F129047E7
:100CD0006D1C761C28780028F5D111B03046BDE88F
:100CE000F08F0024A246A1460122E94900E0044316
:100CF00015F8013F203B02FA03F00842F7D12878AB
:100D00002A2810D06FF02F022878A0F1300109298D
:100D100014D80AEB8A0102EB410144F0020400EB13
:100D2000010A6D1CF0E701CF5FEA000A03D544F425
:100D30000054CAF1000A44F002046D1C28782E28E1
:100D400017D115F8010F44F004042A280ED06FF0D3
:100D50002F022878A0F1300109290AD809EB89016E
:100D600002EB410100EB01096D1CF2E757F8049B0F
:100D70006D1C28786C280FD006DC4C2817D068280A
:100D80000DD06A2814D104E0742810D07A280FD12D
:100D90000DE044F400140AE044F4801401E044F44B
:100DA00040146978814202D104F580146D1C6D1CD9
:100DB00028786E281ED00CDC632830D004DC002894
:100DC0008BD0582811D19FE0642867D069280CD1B6
:100DD00064E073282DD004DC6F2872D0702804D111
:100DE00094E075286ED078286DD0DDE90F12904719
:100DF000761C4BE1C4F30250022806D0032809D028
:100E0000042801CF09D0066040E101CFF117C0E905
:100E100000613BE101CF068038E1067036E117F84A
:100E2000040B8DF8000000208DF80100EB46012036
:100E300003E057F804BB4FF0FF3061074FF00001AB
:100E400002D40DE008F10101884649450FDA8045DA
:100E5000F8DB1BF808100029F4D108E008F10101C3
:100E600088468142FADB1BF808100029F6D1DDE93B
:100E70000F23AAEB08008146214600F031F93044E7
:100E800000EB080604E0DDE90F121BF8010B9047A8
:100E9000B8F10108F7D221464846F2E00A21C4F32E
:100EA00002524FF0000B0891022A04D001CFC11763
:100EB000032A09D00AE0FF1D27F00707F7E802011F
:100EC00008E02CE01EE01FE000B2C117042A01D1A7
:100ED00040B2C117021E71F1000206DA0023D0EB06
:100EE000030063EB01012D2202E0220504D52B2231
:100EF0008DF82420012203E0E20701D02022F7E749
:100F0000904653E00A210BE0102109E010214FF038
:100F1000000B44F004044FF00809089103E0082195
:100F20004FF0000B0891C4F30252022A04D001CF03
:100F30000021032A06D006E0FF1D27F00707F7E887
:100F4000020103E080B2042A00D1C0B24FF00008D1
:100F500022072BD52A78702A07D0DDF820C08CF024
:100F6000100C5CEA0B0C05D00EE040228DF824201A
:100F7000012208E050EA010306D030238DF8243026
:100F80008DF8252002229046089B83F0080353EA3F
:100F90000B030BD150EA010201D1620706D53022C2
:100FA0008DF824204FF00108A9F101092A78582A68
:100FB00004D038A20B9208AA0A920BE03AA2F9E7F1
:100FC0005B46089AFFF7ACF90B9B9B5C0A9A521E92
:100FD0000A92137050EA0102F2D10A98ADEB0000B8
:100FE00000F1200B600702D524F4803401E04FF0BB
:100FF0000109D94502DDA9EB0B0000E0002000EB60
:101000000B0141440890AAEB010AE00306D4DDE994
:101010000F232146504600F063F806444FF00009C4
:1010200008E009A911F80900DDE90F12904709F15C
:101030000109761CC145F4DBE0030CD5DDE90F2383
:101040002146504600F04CF8064404E0DDE90F125A
:1010500030209047761C0899481E08900029F5DC3E
:1010600008E00A980A990078491C0A91DDE90F12F4
:101070009047761CBBF10001ABF1010BF1DC21467E
:101080005046DDE90F2300F019F806446D1C21E6F7
:10109000092801003031323334353637383961624E
:1010A0006364656600000000303132333435363712
:1010B0003839414243444546000000002DE9F041E3
:1010C000044600251E461746880404D405E0394628
:1010D0002020B0476D1C641EF9D52846BDE8F0817C
:1010E0002DE9F041044600251E469046C80301D56F
:1010F000302700E02027880404D505E04146384623
:10110000B0476D1C641EF9D52846BDE8F08100008B
:1011100010B572B601F0AEF800F0CCFE0028FBD19D
:1011200011481249401AC408012000EB044010A1E4
:1011300001F02CF811480068C00700D000BE022062
:1011400000EB04400EA101F021F8BFF34F8F0B48D4
:10115000E43801680E4A01F4E06111430160BFF315
:101160004F8F00BFFDE70000D03700009037000030
:10117000466174616C206572726F7200F0ED00E080
:1011800053797374656D2072657365740000000097
:101190000400FA050EB500210091CDE901106A4660
:1011A00044F20100FFF7B4FF0EBD00F003B800F0F9
:1011B00009B8000072B602480168491C0160704716
:1011C0005000002003490868401E086000D162B644
:1011D000704700005000002070B5054608680C46B6
:1011E000411C04D000F0A4FD206800F002FD6068FE
:1011F000411C02D0002100F0E0FC2968A069C1F880
:101200002405607D227D29681043C1F86C05D4E96E
:1012100000122868C0F81425C0F80C15207D01289C
:1012200014D1A068411C02D0002100F0C6FCE06887
:10123000411C04D000F07CFDE06800F0DAFCD4E949
:1012400002122868C0F80825C0F8101570BD70B5E6
:10125000054608680C46411C04D000F073FD206868
:1012600000F0D1FC6068411C02D0002100F0AEFC0F
:101270002968A069C1F82405607D217D2A6808439A
:10128000C2F86C05D4E900122868C0F80C15C0F843
:101290001425207D012814D1A068411C02D0002112
:1012A00000F094FCE068411C04D000F04BFDE068C5
:1012B00000F0A9FCD4E902122868C0F80825C0F89B
:1012C000101570BD094908B5085C0090684600F02B
:1012D000DFFCD0F80425009B0121994021EA02039C
:1012E000C0F808351140C0F80C1508BDA83500003D
:1012F0002DE9F0470546861C91460F464FF0010A3E
:101300000020FFF752FF1B4C04F21C486068386055
:10131000D4E90101184F401A3968081A0EE001217A
:10132000404600F023FA00F01BF90146404600F069
:101330001DFAD4E90101401A3968081A401C864296
:10134000EDD8B9F1000F03D0052065F3891002E054
:10135000062065F39F5061683A68114004EB8101F3
:10136000C8606068304460600020FFF720FF50468E
:10137000BDE8F087FC0200208000002070B50D461B
:1013800004460A2902D10D21FFF7F8FFA068226860
:10139000411CA1601554D4E90101814204D32046C7
:1013A000BDE8704000F0B3BA70BD00000448816829
:1013B0004068814201D10120704700207047000041
:1013C000FC0200200249084490F9300070470000F8
:1013D0001C01002010B50021024800F0D2F980F372
:1013E000100010BD1807002038B504468DF8000025
:1013F00069460320ABBE204638BD00002DE9FC5FE6
:101400000E008346DDE90C47C6F10000984692467F
:10141000814600D40846012503E000BF90FBFAF0A6
:101420006D1C5045FADAA84500D9454624B1002E76
:1014300001DB780700D5641EB80702D5B8F1000FAC
:101440000AD0F80708D13CB1A54205D22021584660
:10145000641EFFF793FFF6E7002E02DA4E462D21B9
:1014600002E0780703D52B215846FFF787FF07F0E6
:10147000030002280BD1B8F1000F08D13CB1A542FE
:1014800005D230215846641EFFF778FFF6E7CDE914
:101490000047434652463146584601F03BFFBDE8FF
:1014A000FC9F000070B50D46044600684FF488713B
:1014B00000F0D6FF4FF49071206800F0D1FF4FF498
:1014C0009271206800F0CCFF4FF4A271206800F008
:1014D000C7FF4FF4AC71206800F0C2FF20681249CA
:1014E000C0F804132068690740F30730090E00288C
:1014F00004DB00F1E02080F8001405E000F00F00AC
:1015000000F1E02080F8141D206840F30730002827
:1015100009DB00F01F02012191404009800000F129
:10152000E020C0F8001170BD100342000246002008
:101530001268530713D502F00300012802D00228D5
:101540000CD105E0C2F383100B68801C184404E042
:101550000223086803EB9252104408600120704790
:101560002DE9FF410026244800F0FDF82248001F25
:10157000074600F0F8F8214C2149A06800900D685A
:1015800000E000986946284004EB80000C30FFF72B
:10159000CDFF0028F5D101AA009901EA050304EB6B
:1015A0008303491CDB6842F82030401C009102286C
:1015B000F2D3019800F0030001280BD0022810D1CB
:1015C0000198032101EB90500099BDF80A6001EBEE
:1015D000900005E00198BDF80A60C0F3831008444C
:1015E0000090384600F0BCF808B10098A06004B044
:1015F0003046BDE8F081000014070020FC02002006
:10160000800000201FB50020FEF7A6FFFEF7C6FFF2
:101610001D481E49401AC008032101EB00401CA1CF
:1016200000F0B4FD204C4FF0000800BFC4F8088063
:10163000A4F80C8084F80E8084F800801A490722F0
:10164000491CCB1D15468DE82E001848002269461E
:1016500000F0F4FF18B1FFF79DFD00E020BF2078F7
:101660000028FBD000F026FC0028FBD1FFF72AFE63
:101670000E4DC8260C3D4FF47A47691C3846884702
:10168000761EFAD1D2E70000D03700009037000074
:10169000535049206578616D706C65207374617278
:1016A0007465642E00000000210000209C350000BD
:1016B0002DE9F047C5881E1DB6FBF5F78946B6FB38
:1016C000F5F1044605FB176C407916686843DDF8B0
:1016D00020A0F718001F874200D9C61A166001E043
:1016E0002468491E0029FBD1A5EB0C078846B742A8
:1016F00016D818E004EB0C00001D09EB0803BAF142
:10170000000F3A4602D00146184600E01946FEF79F
:101710005DFE2468F61B4FF0000CB844B54201D9B9
:10172000374600E02F46002EE4D1BDE8F0870000E8
:1017300030B5024651B100F085FD0021074C08E0AC
:1017400034F821301568AB4202D11160002030BD61
:10175000491C8142F4D3052030BD00000000000088
:10176000002100F009B8012100F010B808B56A4660
:10177000FEF785FD009808BD08B56A46FEF765FDD1
:1017800008BD08B56A46FEF747FD08BD08B56A46BC
:10179000FEF74EFD009808BD08B56A46FEF77CFDD1
:1017A000009808BD70B5044600252846FFF7FDFCEB
:1017B00021686268086890420ED9401E086001786E
:1017C000238AE26801FB0325227A2168101AC0B23D
:1017D0000A79824200D208710020FFF7E8FC28460F
:1017E00070BD70B505460C460020FFF7DEFCE868CA
:1017F000298A201AB0FBF1F12A681068431C136093
:101800000170BDE870400020FFF7D1BCC20800F0B5
:1018100007030120895C9840084070472DE9FF418B
:101820001C460378164D174E45F82320103545F811
:101830002340F0CE8DE8F0000C788DF800404C7815
:101840008DF801408C788DF80240CC788DF80340FB
:101850000C798DF805404C798DF806408C6802941F
:101860000C7B8DF80C40497B8DF80D1002B1064AB7
:101870006946001D00F02CFE04B0BDE8F0810000B8
:10188000FC000020B03500003D2E0000F0B50546FC
:101890000478154889B0164640F82420124A086991
:1018A0000832A2F10C0742F82400487F3855202264
:1018B0006846FEF78BFD04942878385C48B10EB179
:1018C0000A4A00E000226946281D01F027F809B005
:1018D000F0BD0EB1064A00E00022694605F10C0099
:1018E00000F0E6FEF3E7000038000020D1310000F0
:1018F000193000000FB408B50399002904D004AAD8
:1019000000926A4600F00FF801B05DF814FB10B5C4
:1019100082680446002A05D0D4E904032168984768
:101920000020A06010BD2DE9FC4791460C008046C8
:1019300076D014F8011B39B125290ED04046FFF7A7
:101940001DFD20780028F4D198F80C00002867D0FD
:101950004046BDE8FC47FFF7DABF002001222178AE
:101960002B291BD02D2902D0302908D102E040F0CC
:10197000010001E040F00200641C002AEFD10025C4
:101980002A290ED02178A1F130020A2A11D205EBC2
:10199000850201EB4205641C303DF1E740F0040094
:1019A000EAE7D9F800100B1DC9F800300968641C7B
:1019B0000D44217800232E290BD114F8011FA1F129
:1019C00030020A2A05D203EB830201EB4203303BCB
:1019D000F3E76C290DD068290BD0692921D00BDCE5
:1019E000252918D0582931D063290ED0642915D162
:1019F00017E014F8011FECE7702969D0732932D081
:101A000075291BD0782909D120E0D9F80000011DE3
:101A1000C9F8001001784046FFF7B0FC641C90E75D
:101A20006CE0D9F800100A1DC9F800200968CDE95A
:101A300000500A224046FFF7E1FCEFE7D9F800101A
:101A40000A1DC9F8002009680A2206E0D9F800102A
:101A50000A1DC9F8002009681022CDE9005040464F
:101A600001F058FCDAE7D9F8001000270A1DC9F880
:101A700000200E68C00705D112E04046761C7F1C8E
:101A8000FFF77CFC31780029F7D104E020214046A3
:101A90006D1EFFF773FCBD42C0D9002DF6D1BDE726
:101AA0004EB13046FEF7B6FC074604E02021404622
:101AB0006D1EFFF763FCBD4206D9002DF6D103E091
:101AC0004046761CFFF75AFC31780029F8D1A5E78B
:101AD000D9F80000011DC9F8001005683021404602
:101AE000FFF74CFC78214046FFF748FC0820002116
:101AF000CDE90001034610222946B0E7BDE8FC8786
:101B00002DE9FF411C46DDE90A7815460E46684678
:101B100000F0DAF846EA450141EA840141EA072289
:101B200042EA0841009A00EB8200C0F80017BDE8C5
:101B3000FF812DE9FF411C46DDE90A7815460E4676
:101B4000684600F0CFF846EA450141EA840141EADF
:101B5000072242EA0841009A00EB8200C0F8001711
:101B6000BDE8FF812DE9FF411C46DDE90A781546F5
:101B70000E46684600F0C4F846EA450141EA840191
:101B800041EA072242EA0841009A00EB8200C0F8CD
:101B90000017BDE8FF811CB5002100910B46012212
:101BA0000191FFF7C6FF1CBD1CB5002100910B463B
:101BB00001220191FFF7D6FF1CBD1CB500220B4688
:101BC000009211460192FFF7B4FF1CBD1CB5002224
:101BD0000B46009211460192FFF7C4FF1CBD1CB5D5
:101BE000002100910B46012201911146FFF788FF69
:101BF0001CBD1CB5002100910B460122019111462C
:101C0000FFF797FF1CBD1CB5002100910B46012278
:101C100001911146FFF7A6FF1CBD13B50C4668469F
:101C200000F044F8009900EB8101D1F8002722F47C
:101C30004032C1F80027009900EB8100D0F800176E
:101C400041EA0441C0F800171CBD00003CB50A4C35
:101C5000D4E90034CDE900346B46441808E000BFF5
:101C600053F82010D1F8205520C2C1F82055401C4F
:101C70008442F5D83CBD0000C035000001B568467F
:101C800000F022F8009A01219140C0F80C1508BD1F
:101C90000168202902D24FF0A040704701F01F01D7
:101CA00001600148704700000003005001682029CE
:101CB00002D24FF0A040704701F01F0101600148BF
:101CC00070470000000300500168202902D24FF045
:101CD000A040704701F01F010160014870470000FB
:101CE000000300500168202902D24FF0A040704745
:101CF00001F01F010160014870470000000300501F
:101D00000168202902D24FF0A040704701F01F0166
:101D100001600148704700000003005001B56846AB
:101D2000FFF7D2FF009A01219140C0F8081508BDC5
:101D300001B56846FFF7D6FF009A01219140C0F82F
:101D4000081508BD01B56846FFF7DAFF009A0121C2
:101D50009140C0F8081508BD034908B508440021A2
:101D600001600068009008BD0060004002494058D2
:101D7000012800D00020704700600040F0B595B009
:101D80001C4615460E4608461A9F00F02BFB1821EC
:101D900009A8FEF734FB0E97CDE909540023082269
:101DA00003A9304600F031FB05980690BDF81000FD
:101DB000ADF81C00BDF81200ADF81E0000208DF833
:101DC00021000399082501F00300012802D0022810
:101DD00016D02FE0C1F3C200C1F383178C0A8DF82F
:101DE0002000BA002B460FA9304600F00EFB09A8D0
:101DF000009006AB3A460FA9204600F04FFA19E0D2
:101E0000C1F3C2008C0D8DF82000082C01D22746AA
:101E100000E008272B463A460FA9304600F0F5FAB5
:101E20003D44E41B09AB06AA39460FA800F0B2F9FD
:101E3000002CEAD1304600F0D9FA15B0F0BD704759
:101E4000084810B50178084A515C19B1001D00F02E
:101E5000FFFD02E00C3000F0F9FCBDE8104000206E
:101E600001F0F8B8640000203400002008B5034AEF
:101E700000924023024AFFF781FF08BD852D000034
:101E8000FC0100200A4A012902EBC00007D0022908
:101E900007D0032907D0042907D00020704702206B
:101EA0007047042070470079704740797047000000
:101EB000903700002DE9FF47FFF778FA18B10020AE
:101EC00004B0BDE8F0877D4C0020C4F81804BFF3CF
:101ED0004F8F7B49A06800900D684FF000082840A4
:101EE00004EB80000CE000BFD4F8180470B96168FE
:101EF0000098814201D8A160E1E7284004EB80000E
:101F00000C306946FFF712FB0028EDD1002001AA32
:101F1000009901EA050304EB8303491CDB6842F8DE
:101F20002030401C00910228F2D3019800F00301F8
:101F3000022902D001294DD0A5E0810D5022894609
:101F4000B2EB905F00D850210E4666F39F5001908F
:101F500008315C4800F0FDF9070077D000F042FA44
:101F60004346082201A9384600F057FA009908F1C3
:101F7000080A2940681A8000001D864223D94F4D67
:101F80000C3530B1C2B204EB8101301A90460C31ED
:101F900004E02946F2B2002590462846C6B25346D0
:101FA000384600F03AFA0AEB08032DB132462946CA
:101FB0004FEA070000F031FA009909F1030001EB44
:101FC0009000009039E004EB8101534632463846D8
:101FD0000C31EFE7C0F38311062900D3062161F32A
:101FE00089100190C0F38310801C8100354800F0F7
:101FF000B0F9070047D000F0F5F94346082201A9DF
:10200000384600F00AFA08F1080800260FE00098A8
:10201000434600EA0501401C04EB810100900422C4
:1020200038460C3100F0F9F908F10408761C0198E3
:10203000C0F38310B042EAD847B1D4F81054D4F8B2
:10204000180478B1384600F0D1F931E01BE0E868B7
:102050004079012804D12A682846394612689047F9
:10206000E8680568002DF2D1384600F0BFF900207D
:10207000FFF79BF8D4F8180408B90098A060002076
:10208000FFF795F814E0D4F8104405E021682046E5
:1020900089688847E0680468002CF7D10A480B4932
:1020A000401AC008022101EB004009A100F06EF8BF
:1020B000FFF77CF980F0010002E70000FC0200203D
:1020C00080000020D8370000D03700009037000093
:1020D0004261636B656E647320666C7573686564DA
:1020E000000000002DE9F84F8146264FD01C154610
:1020F0008A468008002269463E68FFF7F9F8DFF853
:102100008880B0B3009CA01C009039683040091A48
:102110008F003F1DBD4208EB800002D82A46514681
:1021200008E03A4651460C30FEF750F91648EA1BD3
:102130000AEB07010C30FEF749F94FEA1947FFF7A0
:1021400049F947EA0042601C304008EB8000344007
:1021500008EB8401C260C8684FF6C07269F3C5001D
:10216000904365F39F5020F00300801C20F0040092
:10217000C86098F8000001E0FFF79CFE0028FBD142
:10218000BDE8F88F80000020FC02002000231A46E2
:1021900000F0CEBE2DE9F0470E4680461C46924622
:1021A000082940D894F80C90002020731946104656
:1021B00000F060FD0025B54206D218F805201BA1ED
:1021C0002046FFF797FB03E01AA12046FFF792FB9A
:1021D0006D1C082DEFD318A12046FFF78BFB0025BF
:1021E000B54212D218F805707E2F08D8FEF7D8F83D
:1021F0000068C05D10F03E0F01D03A4600E02E228C
:102200000EA12046FFF776FB03E00DA12046FFF765
:1022100071FB6D1C082DE3D301222146504600F0CE
:102220000BFD84F80C90BDE8F087000020253032CB
:1022300078000000202020007C00000025630000C2
:102240002000000002480349401AC00870470000FF
:10225000D83700009037000013B56846FFF768FADA
:1022600008B100201CBD0248009950F831001CBD87
:102270009037000070B508480125D0F8104405706B
:1022800007E0E06845712168204649688847E068B2
:102290000468002CF5D170BDFC0200202DE9FF4739
:1022A00081460C9D00200C462F7B287398461646CD
:1022B0002946184600F0DEFC072E42D2DFE806F081
:1022C00004090F161F2A360049462846FFF712FB5D
:1022D00037E0494628462268FFF70CFB31E0D4E995
:1022E000002349462846FFF705FB2AE0A068009036
:1022F000D4E9002349462846FFF7FCFA21E0D4E957
:102300000201CDE90001D4E9002349462846FFF740
:10231000F1FA16E004F1080007C88DE80700D4E9D7
:10232000002349462846FFF7E5FA0AE004F10800D1
:102330000FC88DE80F00D4E9002349462846FFF76F
:10234000D9FA00222946404600F076FC2F73BDE8FA
:10235000FF872DE9F041058A80462D1F4819C01CD2
:10236000B0FBF5F0C6B24046FFF71CFA041E19D0C8
:102370000020207101206071E58000272546761E2F
:10238000C4F800800BE04046FFF70CFA60B16179B9
:10239000491C6171286005467F1CC0F80080B74267
:1023A000F1D32046BDE8F081204600F002F800207D
:1023B000F8E72DE9F041457901466B1E002201E066
:1023C0000968521C9A42FBD30F680146002605E0BB
:1023D00038460C68FFF705FA2146761CAE42F7D363
:1023E000BDE8F0810121001DFFF7C0B910B504461A
:1023F0000121001DFFF7D0F910F0FF0F04D1204696
:10240000BDE81040FFF7D5BF10BD1CB501920122F9
:10241000009201AAFFF74CF91CBD1CB501920022E5
:10242000009201AAFFF744F91CBD4058002800D0D3
:10243000012070474058002800D00120704708B59F
:10244000002242504058009008BDD0F804030840D4
:1024500000D0012070474058002800D0012070476C
:1024600008B5002242504058009008BD0121B1EB50
:10247000507F01D101207047002070470121B1EB4E
:10248000507F01D1012070470020704770B50D4684
:1024900000F03CFC04000FD00020FEF786FE2079FF
:1024A00020B10020FEF783FE112070BD01202560C1
:1024B00020710020FEF77BFE002070BD10B500F0FB
:1024C00025FC002802D000210160017110BD000030
:1024D0002DE9FC470C46154601798046554A01EB2B
:1024E000C10002EB80069946307F10B10820BDE89C
:1024F000FC87514AD8F80000074652F82110FFF730
:10250000C5FF08B11120F2E7C6E90059207B012878
:10251000207802D8FFF7B2FB01E0FFF7FFFB4FF096
:10252000000ACDF800A0CDF804A02078534652460A
:102530000121FFF7E5FA60784FF0FF35FF2806D05C
:102540008146FFF79BFB4846FFF749FB00E0A946A1
:10255000A078FF2809D0002205460123CDF800A06D
:102560001146CDF804A0FFF7CBFAA07886F820003A
:10257000E078F077E078FF280BD0217911B1FFF7F0
:102580007DFB01E0FFF7CAFBE078FFF728FB20792D
:10259000B0772178C7F80815C7F80C95C7F810551B
:1025A000A068C7F82405217B607B00B101200129C8
:1025B00004D0022905D0032908D105E040F002002B
:1025C00004E040F0040001E040F00600C7F85405C4
:1025D000A079C7F8C0050720C7F8000530680122B8
:1025E00018B3D8F80000617940F3073000284FEAAB
:1025F000411104DB00F1E02080F8001405E000F058
:102600000F0000F1E02080F8141DD8F8000040F31E
:102610000730002809DB00F01F0102FA01F1400930
:10262000800000F1E020C0F80011504686F81DA09F
:1026300032775CE788010020C83500002DE9F041C1
:1026400005460F460079154900EBC00001EB8004F8
:102650001646607F10B11120BDE8F081206820B1DE
:1026600016F0140F01D10120607797E80F0004F1F4
:102670000C0888E80F00E07FFF2806D0A17F11B189
:10268000FFF74CFB01E0FFF7F9FA33463A462146E3
:102690002868BDE8F04100F0EDBB00008801002093
:1026A0000149024800F0FEBCAC01002000200040BF
:1026B0002DE9F0410546007916460F4600EB400132
:1026C0002D4A01EBC00102EB810494F82A1011B1EC
:1026D0000820BDE8F081294951F820102868FFF74B
:1026E000D5FE08B11120F4E739462846FEF774FDFF
:1026F00066603869206030004FF001062FD03F7FC0
:102700004FF48E712868FFF79AFE4FF4A271286883
:10271000FFF795FE28681A49C0F8041328684FEAA5
:10272000471140F30730002804DB00F1E02080F877
:10273000001405E000F00F0000F1E02080F8141D07
:10274000286840F30730002809DB00F01F0106FA73
:1027500001F14009800000F1E020C0F80011286874
:102760000421C0F800150020A061E06184F8290070
:1027700044F8140FA675ACE7AC010020CC3500007E
:10278000800002002DE9F05F054600790B4600EB62
:10279000400101EBC000244901EB8004284600F011
:1027A00045F810B11120BDE8F09F62614FF00009BB
:1027B000C4F82090A36084F828904FF48E784E4699
:1027C00041462868FFF73BFE28684FF0010AC0F831
:1027D00008A02146286800F0F5FB606808BBD5F822
:1027E00000B067690FE000BF94F8280008B10F2619
:1027F00015E041465846FFF71DFE0028F4D021465B
:10280000584600F0DFFB206AB842F2D357464146F3
:102810002868FFF70FFE0028F9D02868C760C4F8C1
:1028200014903046BFE70000AC010020007900EBB7
:10283000400101EBC000044901EB80004069002821
:1028400000D0012070470000AC0100202DE9F047C6
:10285000044600794FF0000900EB400101EBC00095
:10286000284901EB80072068C0F800957868B0B16E
:1028700020682549C0F80813206840F30730002875
:102880000DDB00F01F02012191404009800000F1A2
:10289000E020C0F88011BFF34F8FBFF36F8F206827
:1028A000D0F80C25D0F81485D0F80865D0F810556C
:1028B0004FF0FF31C0F81415C0F80C152068C0F8AF
:1028C0000815C0F81015501C02D01046FFF763F928
:1028D000B8F1FF3F02D04046FFF75DF9681C02D017
:1028E0002846FFF758F9701C02D03046FFF753F91D
:1028F0002068FFF7E3FD87F82A90C7F80490BDE849
:10290000F0870000AC010020840202000149024867
:1029100000F076BCD8010020002000402DE9F041F5
:102920000546164600790F46154A00EBC00102EB3A
:10293000810494F8201011B10820BDE8F0811149FC
:1029400051F820102868FFF7A1FD08B11120F4E725
:1029500039462846FEF77BFC6660386920601EB168
:10296000397F2846FEF79EFD28680821C0F800152B
:102970000020A061E0616061012184F82010DCE7A3
:10298000D8010020D03500002DE9F04704460E465E
:102990000079274900EBC00001EB8005174630465F
:1029A000FFF76CFD30B1204600F044F820B1112053
:1029B000BDE8F0871020FBE76F61AE604FF49077C1
:1029C0004FF0000839462068FFF74AFD4FF4AC7617
:1029D00031462068FFF744FD2068AA686969C0F89D
:1029E0004425C0F8481520684FF00109C0F8089048
:1029F0006868D0B9BA4651462068FFF72CFD0746F3
:102A000031462068FFF727FD0743F4D010B14FF09F
:102A10000F0808E02068C0F80C9031462068FFF7E6
:102A20001AFD0028F9D0002068614046C0E7000088
:102A3000D80100200079054900EBC00001EB8000BF
:102A40004069002800D0012070470000D801002014
:102A50002DE9F047064600793D4900EBC00001EB47
:102A60008005346868680127A8B13A49C4F808139A
:102A7000306840F3073000280DDB00F01F0107FA33
:102A800001F14009800000F1E020C0F88011BFF39F
:102A90004F8FBFF36F8FD4F8000220F02000C4F8EE
:102AA0000002A8694FF4A27820B141462046FFF702
:102AB000D7FC67604FF4AC7949462046FFF7D0FC5D
:102AC000E760474649462046FFF7C5FC0028F9D095
:102AD000A86928B139462046FFF7BDFC0028F1D08F
:102AE0004FF0000AC4F800A53068D0F80C25D0F8E3
:102AF0001495D0F80885D0F810754FF0FF31C0F864
:102B00000C15C0F814153068C0F80815C0F8101579
:102B1000501C02D01046FFF747F8B9F1FF3F02D032
:102B20004846FFF741F8781C02D03846FFF73CF8DA
:102B3000B8F1FF3F02D04046FFF736F82046FFF7D6
:102B4000BDFC85F820A0C5F804A0BDE8F087000012
:102B5000D8010020100342002DE9F84F314F0546FF
:102B60004FF001090024381990F96010491C46D033
:102B700090F86000294620F0C0063046FEF746FE79
:102B800070B3204600F050F8824668460096FFF782
:102B90008DF8009900EB8100D0F80007C0F30148E0
:102BA000B8F1020F1DD002213046FFF736F8684613
:102BB0000096FFF77BF8009A09FA02F1C0F8201599
:102BC0003046FEF7FFFB57F820204AB15046BAF1D5
:102BD000030F11D0B8F1020F05D0B8F1030F07D0E1
:102BE0000DE00321E0E75046BAF1010F04D006E002
:102BF0005046BAF1020F02D1014630469047641C9C
:102C0000042CB0D32A4602210020FFF71FF8002031
:102C100055F820100029A5D1401C0228F8D3BDE8A2
:102C2000F88F00001C0100200249084490F8600061
:102C3000800970471C01002010B50C46017A052957
:102C400008D0407A38B1084808A102682046FEF74B
:102C500051FE00E01AB106A12046FEF74BFE2046C9
:102C6000BDE81040FEF753BEB00000202573000001
:102C70000D0A000038B5C3880D46044633B114A0D0
:102C8000009015A216A12846FEF734FE217A0529E8
:102C90001CD0607A48B1A088FFF7F4F8164951F8C3
:102CA000202016A12846FEF725FEA0880021FFF768
:102CB000D3FA03461049207A143951F8202001B084
:102CC0002846BDE830400EA1FEF714BE38BD000016
:102CD0001B5B306D000000001B5B313B33316D002E
:102CE00025734C6F67732064726F70706564202861
:102CF00025642925730D0A00B0000020257300000B
:102D00003C25733E2025733A200000000349884289
:102D100001D10348704700207047000000200040A8
:102D20004800002070B5054688690C4600284FF41D
:102D3000847128460AD0FFF782FBD5F81805626A2D
:102D4000E1688854606A401C606270BDFFF777FBE1
:102D5000D5F8180570BD1FB501238DF80030CDE9F9
:102D60000121D0E90012684690471FBD1FB501231D
:102D70008DF80030CDE90121D0E900126846904776
:102D80001FBD000070B50D4C0020D2B22070201D78
:102D90000B4D0378EB5C1BB1001DFFF7F5FD02E066
:102DA0000C30FFF7EFFC08B1FEF7F4F9607800286B
:102DB00002D021780029FAD070BD00006000002008
:102DC00034000020124910B5012008701148124942
:102DD000401AC108032000EB014004460FA1FFF791
:102DE000D5F90B480F30007800280FD0204610A1ED
:102DF000FFF7CCF906480F30FDF70CFB82B22046F6
:102E00000349BDE810400F31FFF76CB910BD000059
:102E100000000020D0370000903700005472616E2F
:102E20007366657220636F6D706C657465642E00E7
:102E30002052656365697665643A000000B585B027
:102E40000A4601788DF8001041680191017A8DF8E9
:102E50000810C1680391007C8DF81000044850F8F8
:102E60002210103850F822206846904705B000BD67
:102E70000C0100202DE9F843044610681E46154653
:102E80000F464FF0000810B1FFF7F0FAF8B1A8684C
:102E900010B1FFF7EBFAD0B1D5E90001C4F8440551
:102EA000C4F84815D5E90201C4F83405C4F838154A
:102EB0004FF48C754046C4F81881D4F8181100916D
:102EC000F2074FF0010107D0C4F8501506E087F86B
:102ED0001D801020BDE8F883C4F85005B20702D564
:102EE000C4F8401501E0C4F84005300700D4216162
:102EF000386848B146F38000401C4FF0400014D0C1
:102F0000C4F804030020E5E729462046FFF78DFAC0
:102F10000028F9D0F87FFF28F4D0B97F11B1FEF76F
:102F2000ADFEEFE7FEF7FAFEECE7C4F80803E9E7C9
:102F30002DE9F84F074621489146884605681E4608
:102F4000012269461846FEF7D3F9DFF874A060B392
:102F5000009800210446801C0AE000BF00EA050238
:102F600059F821C00AEB8202401C491CC2F80CC06F
:102F7000B142F3D34FEA1749FEF72CFA611C2940FE
:102F80000AEB810149EA00422C40CA600AEB840145
:102F9000C86867F3C50066F3891068F39F2020F0C6
:102FA0000300401C20F00400C8609AF8000001E013
:102FB000FEF780FF0028FBD1BDE8F88F80000020DD
:102FC000FC02002070B50C4605464FF48E71FFF7E9
:102FD00036FA216AA068415C206A401C2062C5F86C
:102FE0001C1570BD1FB500228DF80020029181686C
:102FF00001914261D0E90012684690471FBD1FB59C
:1030000000228DF800200291816801914261D0E98F
:103010000012684690471FBD1FB50A4601788DF81B
:10302000001041680191017A8DF80810C068039082
:10303000044850F82210083850F82220684690477B
:103040001FBD0000400000200149012008707047AA
:103050006000002010B588B0044620220E49684662
:10306000FDF7B4F906200090C01F01900290039074
:103070004FF0EB7006900CB1084A00E00022694660
:103080000748FEF703FC08B1FEF784F80448001F68
:10309000447008B010BD0000F03500004930000059
:1030A000640000202DE9FF470C4605464FF40071EF
:1030B000FFF7CBF901274FF40178002618B34FF43E
:1030C000927949462846FFF7B5F9E0B149462846C6
:1030D000FFF7B5F9C5F8088394F8290000B96F60C7
:1030E00002208DF80000D5F88004C5F88004039014
:1030F000A0690290E0680190A661E661D4E900123F
:103100006846904728E004212846FFF79EF918B347
:103110004FF484712846FFF78DF9E8B1214628461F
:10312000FFF700FE616AA069884215D1E06938B1F5
:10313000E268616AA0612069E6616662E06008E0B9
:1031400094F8290000B96F60C5F80883A661E268A9
:10315000616A2046FFF7FFFD4FF48E78414628460E
:10316000FFF768F980B16069216A814202D294F860
:10317000280028B341462846FFF761F9606918B175
:1031800061692046FFF72EFF4FF4A278414628469A
:10319000FFF750F9002818D041462846FFF74FF9AD
:1031A00094F8290000B12F60A06900280DD0A66115
:1031B000E268616A04B02046BDE8F047FFF7CBBD86
:1031C00021462846FFF7FEFEDEE7BDE8FF87000048
:1031D0001FB50A4601788DF8001041680191017A07
:1031E0008DF80810C0680390044850F82210083881
:1031F00050F82220684690471FBD00004000002084
:103200002DE9FF410C464FF4927705463946FFF70A
:1032100022F90026B8B139462846FFF721F90220E5
:103220008DF80000D5F88004C5F880040390D5F827
:103230003C050290E0680190A661E661D4E90012C5
:103240006846904723E04FF4887739462846FFF7D1
:1032500002F9E0B139462846FFF702F9D5F83C15E6
:10326000A069884213D1E06960B1E268D5F8000234
:1032700020F02000C5F80002E069A0612069E66145
:10328000E06001E0A661E2682046FFF76FFD4FF4C1
:10329000A27739462846FFF7DEF868B13946284656
:1032A000FFF7DEF8A06938B1A661E661D5F83C15F4
:1032B0002046E268FFF75AFD4FF4907631462846E3
:1032C000FFF7C9F860B131462846FFF7C9F8012079
:1032D000E860606920B1D5F84C152046FFF78FFEF5
:1032E0004FF4AC7631462846FFF7B5F800280ED0EB
:1032F00031462846FFF7B4F86069002807D0D5F8B2
:103300004C1504B02046BDE8F041FFF778BEBDE89B
:10331000FF8100002DE9F05F8346DDE90A4A994606
:1033200090460D460846012703E000BFB0FBF8F0C9
:103330007F1C4045FAD2B94500D94F465FEACA70B2
:1033400012D18CB15FEA8A7002D5B9F1000F01D0B9
:10335000202607E0302605E031465846641EFEF779
:103360000DF80CB1A742F7D35FF00106B9F1010FD8
:1033700002D9A9F1010903E0B5FBF6F0404502D3FB
:1033800006FB08F6F2E7DFF83C9000BFB5FBF6F06D
:1033900000FB165519F800105846FDF7EFFFB6FB75
:1033A000F8F6002EF2D15FEACA7009D0002C07D0DF
:1033B000A74205D220215846641EFDF7DFFFF5E73E
:1033C000BDE8F09FD4350000000000000030004050
:1033D0000000000001000000FFFFFFFF06FF0000EB
:1033E0000000004000000000FFFFFF7F00000081A0
:1033F000FFFFFF7F00000081160000002C0000008E
:1034000059000000B20000000B010000150200008E
:10341000800200009B0200002003000079030000EE
:103420002B0400003505000000000000050000002E
:103430000400000002000000000000000809000075
:10344000C9020000080C00006C200000F021000000
:103450001000000010040000C9020000280A00004B
:10346000090000008C23000004010000040A000091
:1034700059480000040A00007BF20000000A000026
:1034800009800000F022000000000000302200004F
:10349000AFA587DE502200003F100000B0220000E0
:1034A0003C20000030220000A0A587DE00010203BE
:1034B000060304050607070709090A0040224422FB
:1034C0007022CC227422C8227822D4229822D022C0
:1034D0000000803F0000C03F00000040000080402E
:1034E00000001041C8000000E8030000881300003D
:1034F00010270000204E0000409C00008038010092
:103500000071020000000000000000006E000000DA
:10351000E8030000D0070000B80B0000A00F000077
:1035200070170000401F000010270000E02E000070
:10353000803E0000204E0000C05D0000307500009D
:10354000007D0000409C000080BB000000FA0000ED
:10355000084C010000770100A0860100C0D40100E2
:1035600000F4010000710200A0FD020000E8030069
:1035700000D007000000803F0000C03F0000004076
:10358000000080400000104100000000000000002A
:103590000338FDD8704700000000000000300040F4
:1035A00000000000010000000D0E0F100B0C181998
:1035B000FFFFFFFF0006FF000000004000000000CA
:1035C0000000005000030050450A0000A126000042
:1035D0000D29000030313233343536373839414225
:1035E000434445466D1E0000411E00003F1E000082
:1035F000FFFFFFFFFFFFFFFFFFFFFFFFFFFFFFFFDB
:1036000000000000000000000000D60106010000DC
:1036100000404040404040404040414141414140E5
:10362000404040404040404040404040404040409A
:103630004005020202020202020202020202020229
:10364000022020202020202020202002020202022E
:103650000202909090909090101010101010101086
:103660001010101010101010101010100202020292
:1036700002028888888888880808080808080808D6
:1036800008080808080808080808080802020202D2
:1036900040000000113600007761726E696E6700AD
:1036A00064656275670000001B5B313B33306D0061
:1036B0001B5B306D000000001B5B313B33316D0044
:1036C0001B5B313B33326D001B5B313B33336D0091
:1036D0001B5B313B33346D001B5B313B33356D007D
:1036E0001B5B313B33366D001B5B313B33376D0069
:1036F000696E666F000000006572726F72000000F4
:103700004750494F54450000505253005350494DC3
:103710000000000055415254000000005541525431
:10372000450000006170705F627574746F6E000018
:103730006170705F74696D6572000000736F727400
:103740006C69737400000000756172745F6C6F6760
:103750005F6261636B656E64000000006170700001
:10376000EC37000000000020E0000000980C000092
:10377000CC380000E000002040260000A80C00002B
:10378000E435000000000000483700007800002009
:1037900000370000000000000837000000000000B3
:1037A0000C3700000000000014370000000000008B
:1037B0001C3700000000000024370000000000005B
:1037C00030370000000000003C370000000000001F
:1037D0005C370000000003038C0000208400002000
:1037E0008C0000203C0200201800000000000000B7
:1037F000000000004E6F726469630000000000006A
:1038000000000000000000000000000000004E6FFB
:103810007264696300000000000000000000000006
:103820000000000000000000000000000000000098
:103830000000000000000000000000000000000088
:103840000000000000000000000000000000000078
:1038500000000000002000400000000000200040A8
:103860000000000000000000FF000000FF0000005A
:103870000000000000000000000000000000000048
:10388000000000000000000000000000F83600000A
:1038900098360000F0360000A0360000B036000078
:1038A000A8360000B8360000C0360000C836000058
:1038B000D0360000D8360000E0360000E8360000C0
:0C38C0000090D003000000000000000099
:0400000500000201F4
:00000001FF
