:020000040000FA
:1000000088200020190200002102000023020000C5
:100010002502000027020000290200000000000065
:100020000000000000000000000000002B020000A3
:100030002D020000000000002F020000310200002D
:1000400033020000330200003302000033020000DC
:10005000330200003302000061020000330200009E
:10006000D904000033020000330200003302000014
:1000700033020000330200003302000033020000AC
:10008000330200003302000033020000330200009C
:10009000330200003302000033020000330200008C
:1000A000330200003302000033020000330200007C
:1000B00033020000330200000000000000000000D6
:1000C000330200003302000033020000330200005C
:1000D000330200003302000033020000330200004C
:1000E0003302000033020000330200000000000071
:1000F0000000000033020000000000003302000096
:1001000000000000000000000000000000000000EF
:1001100000000000000000000000000000000000DF
:1001200000000000000000000000000000000000CF
:1001300000000000000000000000000000000000BF
:1001400000000000000000000000000000000000AF
:10015000000000000000000000000000000000009F
:10016000000000000000000000000000000000008F
:10017000000000000000000000000000000000007F
:10018000000000000000000000000000000000006F
:10019000000000000000000000000000000000005F
:1001A000000000000000000000000000000000004F
:1001B000000000000000000000000000000000003F
:1001C000000000000000000000000000000000002F
:1001D000000000000000000000000000000000001F
:1001E000000000000000000000000000000000000F
:1001F00000000000000000000000000000000000FF
:10020000DFF810D000F01AF800480047C9060000D7
:10021000AFF300808820002006488047064800474A
:10022000FEE7FEE7FEE7FEE7FEE7FEE7FEE7FEE7A6
:10023000FEE7FEE70503000001020000064C074D43
:1002400006E0E06840F0010394E8070098471034A6
:10025000AC42F6D3FFF7D8FFF00C0000100D000001
:100260002DE9FC410025DFF8948000954FF480765D
:1002700001242F460195304600F0EAFA38B1D8F84B
:100280000403204203D0304600F0D8FA2543361D3F
:1002900064007F1CB6B2082FEDD34FF4BE74204625
:1002A00000F0D6FA48B1204600F0C8FA45F0004503
:1002B0006A460221002000F071FA15F0FF0F16D0F7
:1002C000012600242E420ED008EB8401D1F810053F
:1002D000D1F81015C0F30520094AC1F3014152F8C5
:1002E000242002B190477600641C082CEAD3002D2C
:1002F00002DA684600F086FCBDE8FC810060004040
:100300001C00002070B54FF080520124D2E94C103F
:100310000023082906D1CD06C5F80C31C5F81031E7
:100320005E4D2B60082955D15D4D2D685D4E3560C1
:100330005B4D2D1D2D68361D3560594D08352D68D6
:10034000361D3560564D0C352D68361D3560544DC3
:1003500010352D68361D3560514D14352D68361D0C
:1003600035604F4D18352D684E4E203635604C4D5A
:100370001C352D68361D3560494D20352D68361DDC
:100380003560474D24352D68361D3560444D283580
:100390002D68361D3560424D2C352D68361D356073
:1003A0003F4D30352D683F4E403635603C4D34353D
:1003B0002D68361D35603A4D38352D68361D35604F
:1003C000374D3C352D68361D3560354D40352D682F
:1003D000361D3560082904D1050002D1334E324D57
:1003E0003560082904D1050002D1314EFB25356066
:1003F000082908D1050006D192F858622D4A1568DF
:1004000066F303051560082904D1020002D12A4DC4
:100410008A012A60082906D128480168C90702D044
:100420006FF0010101602648016841F4700101602C
:10043000BFF34F8FBFF36F8F4FF01021D1F8000241
:10044000002803DBD1F80402002822DA1D4A1460D8
:100450001D480468002CFCD01224C1F80042056835
:10046000002DFCD0C1F8044201680029FCD01360C3
:1004700001680029FCD0BFF34F8F11487C38016818
:10048000124A01F4E06111430160BFF34F8F00BFD6
:10049000FDE710490E48086070BD000038050040B7
:1004A0000404001020C50040488103008C56004021
:1004B00018F50040E40E0040409602400004004061
:1004C00088ED00E004E5014000E401400400FA0585
:1004D0000090D003180000202DE9F047104E0427AB
:1004E00000244FF4A0784FF4803900BF08EB840556
:1004F00009FA04F0715961B1D6F80413014208D029
:100500002946304600F0ACF90648D0E900212846DB
:100510009047641CE4B2BC42E8D3BDE8F087000019
:10052000008000407800002002E008C8121F08C1C7
:10053000002AFAD170477047002001E001C1121F64
:10054000002AFBD17047000072B609480068C00756
:1005500000D000BEBFF34F8F0548E4380168054A5C
:1005600001F4E06111430160BFF34F8F00BFFDE76D
:10057000F0ED00E00400FA050EB500210091CDE990
:1005800001106A4644F20100FFF7DEFF0EBD00F0E5
:1005900003B800F009B8000072B602480168491CAF
:1005A000016070471400002003490868401E08607D
:1005B00000D162B6704700001400002005494FF0DA
:1005C000FF32082841F8202002D3084480F84C204C
:1005D000704700001C000020F0B54FF0FF3512B14D
:1005E0000023082601E0082309260C4C05E000BF83
:1005F00054F823707F1C04D05B1CB342F8D3284608
:10060000F0BD26185DB286F8245044F82310002A65
:10061000F5D1E11881F84C00F1E700001C00002042
:100620000249084490F92400704700001C00002093
:100630000121814003484068014201D001207047F8
:10064000002070470C00002001218140080300D0E9
:10065000012070473EB5194802A9006802900D209C
:1006600000F03EF908B1FFF787FF00200146009037
:100670000123134A134800F041FA01A800F0ACF935
:1006800008B1FFF779FF0F4804680D2004F5A07446
:1006900000F082F9024621469DF8040000F0CCF9F2
:1006A00008B1FFF769FF9DF8040000F0E7F908B111
:1006B000FFF762FF0D2000F077F93EBDDC0C000073
:1006C000400D0300000000201CB500F029F808B11F
:1006D000FFF752FF00F0CAF808B1FFF74DFF0949D4
:1006E000094AD1E90101CDE900016946074800F056
:1006F0001BFA08B1FFF740FFFFF7ACFF034800F01B
:10070000EFF9FEE7DC0C0000D90C0000000000202F
:10071000C20800F007030120895C98400840704738
:100720000448017809B1852070470121017000203B
:1007300070470000080000202DE9FF411C46DDE95C
:100740000A7815460E46684600F04AF846EA450122
:1007500041EA840141EA072242EA0841009A00EB9B
:100760008200C0F80017BDE8FF8113B50C4668464B
:1007700000F036F8009900EB8101D1F8002722F44F
:100780004032C1F80027009900EB8100D0F8001733
:1007900041EA0441C0F800171CBD00003CB50A4CFA
:1007A000D4E90034CDE900346B46441808E000BFBA
:1007B00053F82010D1F8205520C2C1F82055401C14
:1007C0008442F5D83CBD0000E80C000001B5684645
:1007D00000F006F8009A01219140C0F80C1508BD00
:1007E0000168202902D24FF0A040704701F01F019C
:1007F00001600148704700000003005042094FF0BB
:10080000000102D0012A05D102E04FF0FF3101E0E2
:100810004FF6FF7100F01F00012282400A4201D012
:10082000012070470020704701B56846FFF7D8FFE8
:10083000009A01219140C0F8081508BD034908B588
:100840000844002101600068009008BD006000407D
:1008500002494058012800D0002070470060004045
:1008600008B5002242504058009008BD70B5194D9F
:1008700095F85B0008B1082070BD0024661E204674
:10088000FFF7BCFF10B1281980F82460641CE4B2A3
:10089000302CF4D300242046FFF790FE641CE4B211
:1008A000092CF8D3002045F8550F0C49A8800A4CB4
:1008B000C02081F8000401264020891FC1F80001F2
:1008C0004FF4BE70FFF7BAFFA004C4F80403AE7182
:1008D000002070BD1C0000200060004006E000E029
:1008E0002DE9FC41044629480D462044002690F994
:1008F0002410491C01D0082641E0A978002751B3F3
:10090000012200212046FFF767FE411C21D0830011
:100910001F482A7818446978D0F81035DFF874C079
:1009200003EA0C03C0F81035D0F810354FF47C5CA6
:100930000CEA042C43EA0C034FF4403C0CEA02425C
:100940004FF4801C0CEA01510A431343C0F81035E0
:1009500004E0042613E0FE2180F8241068780128C2
:1009600020460FD0FFF732FF0122204600970023D8
:1009700011460197FFF7E0FE204600F035F93046BA
:10098000BDE8FC81FFF750FFEEE700001C000020EF
:1009900000600040FFC0ECFF10B500F017F80149FF
:1009A000084410BD006000400649084490F9240046
:1009B000810005480844D0F8101541F00301C0F843
:1009C000101570471C0000200060004010B5FFF7B4
:1009D00027FE8006000E10BD2DE9F0470427144EB7
:1009E000814600244FF001080020FFF7D0FD08FAEF
:1009F00004F5354203D02046FFF71AFE58B1002017
:100A0000FFF7C7FD27B104F10104AE43E4B2EBD117
:100A10003846BDE8F087074908FA04F000274A681D
:100A20001043486089F800403846FFF7B2FDEFE711
:100A3000FFFF0F000C0000202DE9F04114460D00CF
:100A4000074612D08CB10026FFF7FEFD78B138467C
:100A5000FFF7EEFD68B1084800EBC700C0F810557D
:100A6000C0F814453046BDE8F0810E20FBE70726AC
:100A7000F8E70826F6E7000000F0014070B50446EC
:100A800001260025A640FFF7DFFD18B12046FFF73D
:100A9000CFFD18B102480660284670BD0825FBE767
:100AA00004F501402DE9F04106460D464FF480342F
:100AB00000681746AC404BB14FF4A07101EB8501C3
:100AC000FFF7CEFE3068C0F8044301E0C0F80843E9
:100AD000306800EB8500C0F84075BDE8F08100008B
:100AE000016801220A600079034A00EB400002EB32
:100AF000800002210172704778000020F0B4046881
:100B0000049E40F20115D4F800728D40AF43C4F842
:100B100000720468D4F800521D43C4F800523346F2
:100B2000F0BCFFF7BFBF00002DE9F04104460E46C0
:100B300000792C4900EB400001EB8007387A10B1B6
:100B40000820BDE8F0813A60706800254FF4A07875
:100B5000786006E008EB85012068FFF781FE6D1CD8
:100B6000EDB26079A842F5D82068F17840F30730FB
:100B700000284FEA411104DB00F1E02080F8001466
:100B800005E000F00F0000F1E02080F8141D20685F
:100B9000012140F30730002809DB00F01F0201FAB1
:100BA00002F24009800000F1E020C0F80021206836
:100BB0007278D0F8043562F30103C0F80435206878
:100BC000B278D0F8083562F30103C0F80835206820
:100BD0003278D0F8103562F30303C0F8103539725B
:100BE0000020AEE77800002010B50549C20800F0EB
:100BF0000703885C01249C402043885410BD0000FA
:100C0000710000202DE9F84FDFF8B88005464FF05D
:100C1000010998F9540000274446401C41D094F83B
:100C20005400294620F0C0063046FFF771FD58B346
:100C3000384600F049F8824668460096FFF7D0FD36
:100C4000009900EB8100D0F80007C0F30147022FA4
:100C50001BD002213046FFF788FD68460096FFF75B
:100C6000BFFD009A09FA02F1C0F820153046FFF7DF
:100C7000D7FC54F820203AB15046BAF1030F0DD0FA
:100C8000022F04D0032F06D00BE00321E2E7BAF1D4
:100C9000010F03D005E0BAF1020F02D10146304640
:100CA00090472A4602210020FFF778FD5FF0000000
:100CB00055F820100029ACD1401C0228F8D3BDE81B
:100CC000F88F00001C0000200249084490F85400EE
:100CD000800970471C0000207047000003000100DD
:100CE0000400030600000000000000500003005054
:100CF000100D0000000000201C000000280500006E
:100D00002C0D00001C0000206C20000038050000A5
:100D1000008000400004000000000000000000000F
:0C0D200000000000000000000090D00364
:0400000500000201F4
:00000001FF
